S0150000437573746F6D50726F6A6563742E73726563BD
S113000045C0000060C000005EC000005CC000008D
S11300105AC0000058C0000056C0000054C0000080
S113002052C0000050C000004EC000004CC0000090
S11300304AC0000003C1000046C0000044C00000E4
S113004042C0000040C000003EC000003CC00000B0
S11300503AC0000038C0000036C0000034C00000C0
S113006032C0000030C000002EC000002CC00000D0
S11300702AC0000028C0000026C0000024C00000E0
S113008022C0000020C000001EC0000011241FBEBA
S1130090CFEFD0E4DEBFCDBF11E0A0E0B1E0E6E3F6
S11300A0F8E000E00BBF02C007900D92A639B1073B
S11300B0D9F721E0A6E9B1E001C01D92A03EB20744
S11300C0E1F79BD2B6C39CCFCF93DF93CDB7DEB716
S11300D0A0970FB6F894DEBF0FBECDBF009721F0F6
S11300E08130910531F00AC080912501813461F499
S11300F022C0809125018434F1F406C0009721F0D8
S11301008130910531F517C01092DA0180E2EAE2FC
S1130110F1E0DE01119601900D928A95E1F780E2FB
S1130120FE013196A0E0B1E001900D928A95E1F7CD
S113013080E090E00EC081E08093DA0180E2E6E79F
S1130140F1E0A0E0B1E001900D928A95E1F781E041
S113015090E0A0960FB6F894DEBF0FBECDBFDF913E
S1130160CF910895009721F08130910531F00AC0B4
S11301708091DA018130B1F40AC08091DA018823D8
S113018089F005C0009771F08130910509F59091CF
S1130190D801A0E1B1E040E251E0292F30E0205144
S11301A0314005C01092D80180E090E00895F90133
S11301B0EA0FFB1FEF71FF27EA5AFE4F80818D93F0
S11301C0A417B507A1F79F5F9093D80181E090E051
S11301D008956093260170932701809328019093DA
S11301E029016093DB017093DC018093DD0190931E
S11301F0DE0108958BE0809381008DE790E0909379
S113020089008093880082E080936F0010928500BB
S1130210109284008091260190912701A0912801D9
S1130220B09129018093DB019093DC01A093DD015F
S1130230B093DE018FB780688FBF08951F920F922D
S11302400FB60F9211248F939F93AF93BF93809116
S1130250DB019091DC01A091DD01B091DE010197F9
S1130260A109B1098093DB019093DC01A093DD0126
S1130270B093DE01892B8A2B8B2B99F481E0809338
S1130280DF018091260190912701A0912801B0916E
S113029029018093DB019093DC01A093DD01B093ED
S11302A0DE01BF91AF919F918F910F900FBE0F9080
S11302B01F901895181619065CF008950000215037
S11302C03109E1F74F5F5F4F8417950719F40895DB
S11302D040E050E027E033E0F1CF10988BB9119A59
S11302E00000119882E090E0E5CF089581E0F5CF19
S11302F00895813118F48158F0CF08958155EDCFD8
S1130300089584E690E0D6DF88E3E7DF86E0E5DF62
S11303108FE0E3DF81E0E1DF8AE090E0CBCF089576
S1130320109A8BB9119A0000119881E090E0C2CF25
S113033008950F931F93CF93DF93182FEB01D6DF0C
S11303408881882351F001E0010F812FD2DF899148
S1130350E7DF102F88818111F6CFDF91CF911F91B4
S11303600F910895CF93DF93EC0160E071E081E099
S1130370E0DFCE01DF91CF9108958FEE88B90000C0
S1130380309B29C0319B29C0329B29C0339B29C093
S11303908FED88B90000309B26C0319B26C0329B6C
S11303A026C0339B26C08FEB88B90000309B23C046
S11303B0319B23C0329B23C0339B23C08FE788B972
S11303C00000309B20C0319B20C0329B20C0339B57
S11303D020C080E0089580E2089584E3089587E3CF
S11303E008958AE2089582E3089585E3089588E3F1
S11303F0089580E3089583E3089586E3089589E3E7
S1130400089583E2089581E4089582E4089583E4DD
S1130410089584E40895CF93DF93EC01AEDF8093D5
S11304202501CE01DF91CF910895982F9F7E9150A1
S11304309F3008F4815008958F3010F48F5F089531
S113044090EF980F9F3008F48F5F0895009721F084
S11304508130910531F00AC08091DA01813061F474
S113046010C08091DA01882339F00BC0009721F085
S113047081309105B1F505C01092D90180E090E07A
S1130480089580912501823351F49091D90180EF30
S1130490890F803108F0892F8093D90119C08833DE
S11304A041F48091D901803108F4805F8093D901AF
S11304B00FC0843331F48091D901B7DF8093D9011F
S11304C007C0863329F48091D901B6DF8093D9011E
S11304D0E091D901F0E0E050FF4F8EE3808381E0AA
S11304E090E00895BF92CF92DF92EF92FF920F9324
S11304F01F93CF93DF93009721F08130910531F062
S11305000AC08091DA01813069F418C08091DA015F
S1130510882341F013C0009729F08130910509F038
S113052062C00CC0E0E2F1E08FEF808381838283BC
S11305308383848315B880E090E055C080912501C1
S1130540853309F044C0809120018F3F49F0E1E2F6
S1130550F1E081E090E0AC0121912F3F51F402C021
S113056040E050E0FA01E05EFE4F8091D9018083C3
S11305702EC001968530910571F729C088818F3F7F
S113058041F0982F9F7E9F3011F4B88202C054DF4F
S1130590888321960C171D0789F7A0E2B1E08DE24C
S11305A0ED91F0E0E050FF4F80830A171B07C1F77D
S11305B090E0F70181917F018F3F11F4990F9F5FC4
S11305C00E151F05B1F795B981E090E00CC00F2E10
S11305D0F0E2EF2EF1E0FF2EF02D05E211E0E7014D
S11305E0BB24BA94CBCFDF91CF911F910F91FF9091
S11305F0EF90DF90CF90BF900895CF93DF93CDB766
S1130600DEB72C970FB6F894DEBF0FBECDBF8FEFC9
S113061081B912B884B915B890EF97B99FE098B929
S11306208AB91BB86EDE0F2EF0E9EF2EF02DFF24F1
S1130630F39400E010E058EC40E030E020E004C027
S1130640E62EF72E082F192F652F742F832F922F44
S11306502E2D3F2D402F512FCAD05E2D4F2D302FE0
S1130660212F611571058105910551F768EC70E042
S113067080E090E02E2D3F2D402F512FB8D049011E
S11306805A018CE0EAE4F1E0DE01119601900D924A
S11306908A95E1F7EDECF1E0108221833283438304
S11306A0548315821682178210868BE092E092871B
S11306B08187E2ECF1E01082218332834383548307
S11306C0158216821782108682EB91E092878187C9
S11306D0E7EBF1E010822183328343835483158254
S11306E016821782108684E690E0928781870F2E07
S11306F0FCEACF2EF1E0DF2EF02DD6011C9260E94A
S113070071E080E090E02E2D3F2D402F512F6FD0CF
S1130710F601218332834383548315821682178220
S1130720108682EB90E092878187E1EAF1E0108203
S113073081829282A382B4821582168217821086E5
S113074086E292E092878187E6E9F1E01082818275
S11307509282A382B482158216821782108682E75F
S113076092E0928781876E2D7F2D802F912F31DD2E
S113077041DD6E01BDE0CB0ED11CFE0131967F013F
S1130780D7010D911D917D01F80145815681678145
S1130790708581819281A381B481481759076A07C2
S11307A07B0779F480810184F285E02D082E000C0A
S11307B0990B0995D8018C93F8011582168217823A
S11307C01086F80185819681A781B0850196A11DC7
S11307D0B11D85839683A783B087EC14FD0481F64D
S11307E08091DF018823E1F31092DF01C6CFA1E2FB
S11307F01A2EAA1BBB1BFD010DC0AA1FBB1FEE1F97
S1130800FF1FA217B307E407F50720F0A21BB30BE1
S1130810E40BF50B661F771F881F991F1A9469F75D
S113082060957095809590959B01AC01BD01CF01B9
S10908300895F894FFCFC7
S113083620202020202020202020202020202020AE
S1130846202020202020202020202020202020209E
S1130856FFFFFFFFFF200100000050726573732045
S11308664120746F205374617274507265737320DF
S11308764420746F205265736574CD01C201B701BB
S1130886AC01A1019601FF202020202020FF20207A
S11308962020FF20202020FF202020202020FF20B1
S11308A6202020202020202020202020202020203E
S11308B6202020202020202020202020202020202E
S10908C620202020202068
S9030000FC
