S0150000437573746F6D50726F6A6563742E73726563BD
S113000045C0000060C000005EC000005CC000008D
S11300105AC0000058C0000056C0000054C0000080
S113002052C0000050C000004EC000004CC0000090
S11300304AC000004AC1000046C0000044C000009D
S113004042C0000040C000003EC000003CC00000B0
S11300503AC0000038C0000036C0000034C00000C0
S113006032C0000030C000002EC000002CC00000D0
S11300702AC0000028C0000026C0000024C00000E0
S113008022C0000020C000001EC0000011241FBEBA
S1130090CFEFD0E4DEBFCDBF11E0A0E0B1E0E0EBF4
S11300A0FEE000E00BBF02C007900D92AA3BB1072F
S11300B0D9F722E0AAEBB1E001C01D92A032B20749
S11300C0E1F771D4F3C69CCFFC010FB6F8946091AC
S11300D01C0270911D0280911E0290911F020FBE9E
S11300E0309721F0608371838283938308952091F4
S11300F01502213091F08130910551F08230910543
S113010061F0009789F480912C018134A9F419C01D
S113011080912C018434A9F40FC080912C01833484
S1130120B1F41092150208C08130910551F082306B
S1130130910569F0009779F41092160280E090E03E
S1130140089581E08093160281E090E00895109272
S1130150160282E090E00895009721F08130910525
S113016031F00AC080911602813061F410C0809190
S11301701602882339F00BC0009721F081309105D5
S113018069F405C01092130280E090E00895809114
S113019013028F5F8093130281E090E00895EF9241
S11301A0FF920F931F93CF93DF93009721F0813039
S11301B0910549F00EC020911602213009F049C082
S11301C01092140209C080911602882309F43FC0DA
S11301D003C081309105E9F560911402A7E2B1E012
S11301E00CE211E047E251E07FEF7D018C918F3FFB
S11301F081F0E4E2F1E080818F3F39F0E7019881FA
S1130200891303C06F5F788370833196E417F50711
S113021091F71196A017B10741F7609314028091EA
S113022012029091150220912401821301C091E0E1
S113023020912501821301C091E020912601281309
S113024001C091E09093150281E090E002C080E04B
S113025090E0DF91CF911F910F91FF90EF9008955F
S113026060932D0170932E0180932F0190933001A0
S113027060931702709318028093190290931A02E4
S113028008958BE0809381008DE790E0909389003E
S11302908093880082E080936F0010928500109212
S11302A0840080912D0190912E01A0912F01B09195
S11302B030018093170290931802A0931902B0930F
S11302C01A028FB780688FBF08951F920F920FB6DE
S11302D00F9211248F939F93AF93BF938091170232
S11302E090911802A0911902B0911A020197A109E4
S11302F0B1098093170290931802A0931902B09346
S11303001A02892B8A2B8B2B99F481E080931B0290
S113031080912D0190912E01A0912F01B091300177
S11303208093170290931802A0931902B0931A02B3
S1130330BF91AF919F918F910F900FBE0F901F901F
S11303401895181619065CF008950000215031091B
S1130350E1F74F5F5F4F8417950719F4089540E064
S113036050E027E033E0F1CF10988BB9119A0000E8
S1130370119882E090E0E5CF089581E0F5CF0895EB
S1130380813118F48158F0CF08958155EDCF089547
S113039084E690E0D6DF88E3E7DF86E0E5DF8FE000
S11303A0E3DF81E0E1DF8AE090E0CBCF0895109AAB
S11303B08BB9119A0000119881E090E0C2CF0895A2
S11303C00F931F93CF93DF93182FEB01D6DF888110
S11303D0882351F001E0010F812FD2DF8991E7DFFB
S11303E0102F88818111F6CFDF91CF911F910F914A
S11303F00895EF92FF920F931F93CF93813091054D
S113040051F082309105A9F00097E1F48091160231
S1130410813011F58AC080911502811104C0809148
S113042016028823C9F080911602813009F47DC038
S113043024C080911502813001F180911602882335
S113044059F073C081309105C1F08230910509F4EF
S11304506CC0009709F0C0C009E911E0C0E0CF5FAB
S11304608C2F8EDFF80181918F01A1DF80E088DF7E
S1130470C032A9F780E090E0AFC07FDF61E471E0B3
S113048081E09EDFC09114020DECC09F112D112458
S1130490169516951695110F812F880F880F180F32
S11304A0FC2FF11B1F2FCF1B89E2C89F812D112424
S11304B082958F709C2F24E6829F90191124909F1F
S11304C0012D112406950695069588E059DFC01B79
S11304D08C2F90E068EE73E010D464E670E00DD4E5
S11304E080E3860F64DF89E04BDF80E3800F5FDF0A
S11304F08AE046DF80E3810F5ADF09E811E00F2E1E
S1130500F9E9EF2EF1E0FF2EF02DC1E18C2F38DF59
S1130510F80181918F014BDF80E032DFCF5F0E1550
S11305201F05A1F781E090E057C080E2E9E6F1E021
S1130530A4E0B1E001900D928A95E1F720911302B5
S1130540A4E1B1E044E251E030E02451314004E060
S113055011E0F901EA0FFB1FEF71FF27E75BFE4F84
S113056080818D93A417B50791F7A4E2B1E0EC91D3
S1130570F0E0EC5FFE4F80E480831196EC911197DC
S1130580F0E0EC5FFE4F80831296EC91F0E0EC5FBC
S1130590FE4F8083A7E2B1E02CE231E08DE2ED91E1
S11305A0F0E0EC5FFE4F8083A217B307C1F7E09140
S11305B01202F0E0EC5FFE4F8EE38083C0E0CF5F79
S11305C08C2FDEDEF80181918F01F1DE80E0D8DE30
S11305D0C032A9F782E090E0CF911F910F91FF9074
S11305E0EF9008958FEE88B90000309B29C0319BAD
S11305F029C0329B29C0339B29C08FED88B90000E4
S1130600309B26C0319B26C0329B26C0339B26C01C
S11306108FEB88B90000309B23C0319B23C0329BF1
S113062023C0339B23C08FE788B90000309B20C0D0
S1130630319B20C0329B20C0339B20C080E00895B2
S113064080E2089584E3089587E308958AE2089593
S113065082E3089585E3089588E3089580E3089587
S113066083E3089586E3089589E3089583E2089572
S113067081E4089582E4089583E4089584E4089568
S1130680CF93DF93EC01AEDF80932C01CE01DF9199
S1130690CF910895982F9F7E91509F3008F48150F8
S11306A008958F3010F48F5F089590EF980F9F3066
S11306B008F48F5F0895009721F08130910531F09F
S11306C00AC080911602813061F410C08091160234
S11306D0882339F00BC0009721F081309105C1F5D2
S11306E005C01092120280E090E0089580912C01E0
S11306F0823361F49091120280EF890F803108F007
S1130700892F8093120281E090E00895883351F498
S113071080911202803108F4805F8093120281E09C
S113072090E00895843341F480911202B3DF809302
S1130730120281E090E00895863341F48091120220
S1130740B0DF8093120281E090E0089581E090E0B0
S11307500895BF92CF92DF92EF92FF920F931F936F
S1130760CF93DF93009721F08130910531F00AC0D7
S113077080911602813069F418C080911602882392
S113078041F013C0009729F08130910509F056C05B
S11307900CC0E7E2F1E08FEF80838183828383835F
S11307A0848315B880E090E049C080912C018533A2
S11307B0C9F5809127018F3F49F0E8E2F1E081E03B
S11307C090E0AC0121912F3F51F402C040E050E091
S11307D0FA01E95DFE4F80911202808323C00196E5
S11307E08530910571F71EC088818F3F41F0982FA5
S11307F09F7E9F3011F4B88202C053DF8883219614
S1130800CE15DF0589F790E0F80181918F018F3FC4
S113081011F4990F9F5F0E151F05B1F795B981E08B
S113082090E00CC007E211E00F2EFCE2EF2EF1E0A5
S1130830FF2EF02DE801BB24BA94D6CFDF91CF91DF
S11308401F910F91FF90EF90DF90CF90BF9008958C
S1130850982F9F7E29F091509F3018F4815008956D
S11308608FEF0895CF92DF92EF92FF920F931F9331
S1130870CF93DF93EC01D1D2209721F0C130D10581
S113088031F00AC020911602213069F415C020917C
S11308901602222341F010C0209729F0C130D1055F
S11308A009F077C009C0E4E2F1E08FEF808381832F
S11308B08283C0E0D0E06DC081709078992324F4E5
S11308C001978E6F9F6F0196813009F054C0C4E286
S11308D0D1E007E211E00F2EFFE0CF2EF02D0F2E16
S11308E0FFE1DF2EF02D7E0188818F3FA9F495D2A0
S11308F081709078992324F401978E6F9F6F0196ED
S113090099278130910519F0029721F005C0F7016C
S1130910C08202C0F701D0822196C017D10719F70F
S11309202AC08E0188818F3FF9F077D2B601E5D1D4
S113093099278130910571F08230910591F0892BCE
S113094099F4988180EF890F803108F0892FF8019C
S113095080830AC08881803108F4805FF801808335
S113096003C0888175DF88832196EC16FD06C9F6DD
S1130970C1E0D0E00EC0C4E2D1E00F2EF7E2EF2ECA
S1130980F1E0FF2EF02D0F2EF3E0CF2ED12CF02D21
S1130990C8CFCE01DF91CF911F910F91FF90EF90BF
S11309A0DF90CF900895CF93DF93CDB7DEB76097F4
S11309B00FB6F894DEBF0FBECDBF8FEF81B912B86A
S11309C084B915B890EF97B99FE098B98AB91BB864
S11309D018EC00E0F12CE12C54E640E030E020E09B
S11309E004C0162F072FF82EE92E652F742F832F9E
S11309F0922F212F302F4F2D5E2D92D1512F402F2A
S1130A003F2D2E2D611571058105910551F70F2E8E
S1130A10F8ECDF2EF02DC12CB12CA12C04C0D62E65
S1130A20C72EB82EA92E612F702F8F2D9E2D2D2D00
S1130A303C2D4B2D5A2D74D11D2D0C2DFB2CEA2C45
S1130A40611571058105910551F710E901E0F12C5B
S1130A50E12C04C0162F072FF82EE92E6D2D7C2DC6
S1130A608B2D9A2D212F302F4F2D5E2D59D1D12E24
S1130A70C02EBF2CAE2C611571058105910551F76F
S1130A800F2EF4EFDF2EF02DCC24C394B12CA12C27
S1130A9004C0D62EC72EB82EA92E612F702F8F2DED
S1130AA09E2D2D2D3C2D4B2D5A2D3AD11D2D0C2D27
S1130AB0FB2CEA2C611571058105910551F70F2E68
S1130AC0F8ECEF2EF02DF12C00E010E004C0E62E3F
S1130AD0F72E082F192F6D2D7C2D8B2D9A2D2E2D51
S1130AE03F2D402F512F1CD1DE2CCF2CB02EA12E08
S1130AF0611571058105910551F768EC70E080E09E
S1130B0090E02E2D3F2D402F512F0AD149015A013B
S1130B1064E670E080E090E02E2D3F2D402F512FB1
S1130B20FFD080E1E1E3F1E0DE01119601900D9246
S1130B308A95E1F7E7E0F2E0108281829282A38253
S1130B40B482158216821782108680E493E092871D
S1130B508187ECEFF1E01082218332834383548355
S1130B60158216821782108689EF91E09287818719
S1130B70E1EFF1E0108221833283438354831582B1
S1130B8016821782108687E790E0928781870F2E5E
S1130B90F6EECF2EF1E0DF2EF02DD6011C9260E9A7
S1130BA071E080E090E02E2D3F2D402F512FB8D0E2
S1130BB0F60121833283438354831582168217827C
S1130BC010868CEA90E092878187EBEDF1E0108249
S1130BD081829282A382B482158216821782108641
S1130BE08BE593E092878187E0EDF1E010828182CA
S1130BF09282A382B482158216821782108689EAB1
S1130C0093E0928781870F2EF5ECCF2EF1E0DF2E53
S1130C10F02DF601108264EF71E080E090E02E2D5B
S1130C203F2D402F512F7CD0D60111962D933D930B
S1130C304D935C931497F6011582168217821086E1
S1130C4082E394E092878187EAEBF1E0108281826B
S1130C509282A382B48215821682178210868FEC48
S1130C6090E0928781876E2D7F2D802F912FF8DA67
S1130C7008DB8EDB80E090E027DACB01D1D06E0177
S1130C80F1E1CF0ED11CCE0101967C01D7010D916B
S1130C901D917D01F80145815681678170858181AF
S1130CA09281A381B481481759076A077B0779F4B5
S1130CB080810184F285E02D082E000C990B0995A2
S1130CC0D8018C93F8011582168217821086F801D8
S1130CD085819681A781B0850196A11DB11D85836B
S1130CE09683A783B087CE14DF0481F680911B021C
S1130CF08823E1F310921B02C6CF97FB072E16F44C
S1130D00009406D077FD08D02DD007FC05D03EF422
S1130D10909581959F4F0895709561957F4F0895A3
S1130D20A1E21A2EAA1BBB1BFD010DC0AA1FBB1FEB
S1130D30EE1FFF1FA217B307E407F50720F0A21B5D
S1130D40B30BE40BF50B661F771F881F991F1A94CA
S1130D5069F760957095809590959B01AC01BD01F4
S1130D60CF010895AA1BBB1B51E107C0AA1FBB1FDB
S1130D70A617B70710F0A61BB70B881F991F5A9523
S1130D80A9F780959095BC01CD0108958F929F920B
S1130D90AF92BF92CF92DF92EF92FF92CF93DF9305
S1130DA0EC01688179818A819B81611571058105D6
S1130DB0910521F464E279ED8BE597E02DE133EFC1
S1130DC041E050E038D049015A019B01AC01A7EA47
S1130DD0B1E44DD06B017C01ACEEB4EFA5019401FC
S1130DE052D0DC01CB018C0D9D1DAE1DBF1DB7FF84
S1130DF003C00197A109B04888839983AA83BB8360
S1130E009F77DF91CF91FF90EF90DF90CF90BF90CD
S1130E10AF909F908F900895B9CF80E091E0B6CFC6
S1130E20A0E0B0E08093000190930101A09302013F
S1130E30B09303010895052E97FB16F400940FD088
S1130E4057FD05D06DDF07FC02D046F408C050956D
S1130E504095309521953F4F4F4F5F4F08959095A2
S1130E608095709561957F4F8F4F9F4F08950FD058
S1130E70A59F900DB49F900DA49F800D911D1124EA
S1130E800895B7FFF4CFF3DF821B930B0895A29F5D
S1130E90B001B39FC001A39F700D811D1124911D4A
S1130EA0B29F700D811D1124911D0895F894FFCFF8
S1130EB001000000202020202020202020202020AD
S1130EC0202020202020202020202020202020201E
S1130ED020202020FFFFFFFFFFFFFFFF2001000075
S1130EE0000702FC01F101E601DB01D001C501BAF2
S1130EF00153434F52453A2000FF20202020202058
S1130F002020202020FF20202020FF20202020201F
S1130F1020FF2020202020202020202020202020EE
S1130F2020202020202020202020202020202020BD
S1130F30202020202020202020507265737320431D
S1130F4020746F20426567696E5072657373204127
S1130F5020746F20537461727450726573732044EB
S10D0F6020746F205265736574005D
S9030000FC
