S0150000437573746F6D50726F6A6563742E73726563BD
S11300004FC000006BC0000069C0000067C0000062
S113001065C0000063C0000061C000005FC0000054
S11300205DC000005BC0000059C0000057C0000064
S113003055C00000BFC0000051C000004FC0000008
S11300404DC000004BC0000049C0000047C0000084
S113005045C0000043C0000041C000003FC0000094
S11300603DC000003BC0000039C0000037C00000A4
S113007035C0000033C0000031C000002FC00000B4
S11300802DC000002BC0000029C00000EA04EE04CB
S1130090F204F604FA04FE04020506050A050E0538
S11300A011241FBECFEFD0E4DEBFCDBF11E0A0E02E
S11300B0B1E0EAE0F5E100E00BBF02C007900D9269
S11300C0A23DB107D9F722E0A2EDB1E001C01D9233
S11300D0A334B207E1F709D60C94830A91CFFC014B
S11300E00FB6F89460913F027091400280914102F2
S11300F0909142020FBE309721F060837183828316
S113010093830895009721F08130910531F00AC05E
S113011080913902813061F410C0809139028823C2
S113012039F00BC0009721F08130910569F405C0C6
S11301301092350280E090E00895809135028F5F3F
S11301408093350281E090E00895609345017093B7
S11301504601809347019093480160933A0270935B
S11301603B0280933C0290933D0208958BE0809380
S113017081008DE790E0909389008093880082E06D
S113018080936F0010928500109284008091450145
S113019090914601A0914701B091480180933A02A1
S11301A090933B02A0933C02B0933D028FB78068CA
S11301B08FBF08951F920F920FB60F9211248F9341
S11301C09F93AF93BF9380913A0290913B02A09189
S11301D03C02B0913D020197A109B10980933A0212
S11301E090933B02A0933C02B0933D02892B8A2B4F
S11301F08B2B99F481E080933E028091450190918C
S11302004601A0914701B091480180933A0290932E
S11302103B02A0933C02B0933D02BF91AF919F91EA
S11302208F910F900FBE0F901F90189518161906F6
S11302305CF00895000021503109E1F74F5F5F4FF2
S11302408417950719F4089540E050E027E033E05F
S1130250F1CF10988BB9119A0000119882E090E0C8
S1130260E5CF089581E0F5CF0895813118F48158E0
S1130270F0CF08958155EDCF089584E690E0D6DF60
S113028088E3E7DF86E0E5DF8FE0E3DF81E0E1DFBD
S11302908AE090E0CBCF0895109A8BB9119A0000B0
S11302A0119881E090E0C2CF08950F931F93CF93EC
S11302B0DF93182FEB01D6DF8881882351F001E00A
S11302C0010F812FD2DF8991E7DF102F88818111FF
S11302D0F6CFDF91CF911F910F910895CF92DF92C6
S11302E0EF92FF926B017C019B01AC0160913002A3
S11302F070913102809132029091330293D6882317
S113030009F44FC020E030E0A901C701B6018AD644
S1130310811106C0E1E9F0E080818870808305C026
S1130320E1E9F0E080818360808328E539E344E7F4
S11303305FE3C701B60176D688233CF48FEF9FEFC5
S1130340909399008093980023C020E034E244EF16
S113035056E4C701B60178D718162CF41092990008
S11303601092980015C020E030E040E053E4C7014B
S1130370B6016ED79B01AC0160E074E284EF9AE4AD
S113038055D6BCD66150710970939900609398005A
S113039016BCC0923002D0923102E0923202F09246
S11303A03302FF90EF90DF90CF9008957F928F9269
S11303B09F92AF92BF92CF92DF92EF92FF920F93F0
S11303C01F93CF93DF93009721F08130910539F08B
S11303D00CC020913902213009F09EC00AC08091DE
S11303E03902882309F496C004C08130910509F0CC
S11303F093C00FE311E00F2EF4E48F2EF1E09F2E53
S1130400F02D0F2EFFE3AF2EF1E0BF2EF02D772459
S11304107A947801F80180818F3FD1F0CCE3D1E068
S113042088818F3F89F0F701908189130DC060E0C6
S113043070E08CED93E452DF809137028F5F8093FC
S11304403702F701708278822196AC16BD0641F717
S11304500F5F1F4F80169106E1F6C0E100E010E047
S1130460D1E080913502F801E80FF11DEF71FF270B
S1130470EF54FE4F80818032F9F0809134028C1366
S11304801BC080912B028F5F80932B02823090F4EB
S113049080913602823058F064EA70ED82E893E489
S11304A01DDF8091360281508093360205C0D093BF
S11304B0380202C010922B020F5F1F4FCF5FC03271
S11304C081F6CCE3D1E00FE311E0FF24F39499919A
S11304D080913402981318C080912A02823090F4DB
S11304E080913602823058F06BE774ED82E993E430
S11304F0F5DE8091360281508093360205C0F09279
S1130500380202C010922A020C171D0701F781E07D
S113051090E002C080E090E0DF91CF911F910F91B5
S1130520FF90EF90DF90CF90BF90AF909F908F900F
S11305307F90089580E4809390008BE080939100F5
S113054060E070E0CB01CACE08958FEE88B9000058
S1130550309B29C0319B29C0329B29C0339B29C0C1
S11305608FED88B90000309B26C0319B26C0329B9A
S113057026C0339B26C08FEB88B90000309B23C074
S1130580319B23C0329B23C0339B23C08FE788B9A0
S11305900000309B20C0319B20C0329B20C0339B85
S11305A020C080E0089580E2089584E3089587E3FD
S11305B008958AE2089582E3089585E3089588E31F
S11305C0089580E3089583E3089586E3089589E315
S11305D0089583E2089581E4089582E4089583E40C
S11305E0089584E40895CF93DF93EC01AEDF809304
S11305F04401CE01DF91CF910895982F9F7E9150B1
S11306009F3008F4815008958F3010F48F5F08955F
S113061090EF980F9F3008F48F5F0895009721F0B2
S11306208130910531F00AC080913902813061F442
S113063010C080913902882339F00BC0009721F053
S113064081309105C1F505C01092340280E090E03C
S1130650089580914401823361F49091340280EFD3
S1130660890F803108F0892F8093340281E090E073
S11306700895883351F480913402803108F4805F06
S11306808093340281E090E00895843341F48091B2
S11306903402B3DF8093340281E090E0089586331E
S11306A041F480913402B0DF8093340281E090E021
S11306B0089581E090E00895BF92CF92DF92EF9287
S11306C0FF920F931F93CF93DF93EC0160E070E0F0
S11306D0CB0104DE209721F0C130D10531F00AC0EE
S11306E080913902813069F418C0809139028823DD
S11306F041F013C0209729F0C130D10509F05CC046
S11307000CC0EFE3F1E08FEF8083818382838383E6
S1130710848315B8C0E0D0E04FC080914401853394
S113072009F03EC060E070ED82E094E4D7DD809192
S11307303F018F3F49F0E0E4F1E081E090E0AC015B
S113074021912F3F51F402C040E050E0FA01E15CF6
S1130750FE4F80913402808323C001968530910539
S113076071F71EC088818F3F41F0982F9F7E9F3084
S113077011F4B88202C048DF88832196CE15DF05C4
S113078089F790E0F80181918F018F3F11F4990F5F
S11307909F5F0E151F05B1F795B9C1E0D0E00CC0FD
S11307A00FE311E00F2EF4E4EF2EF1E0FF2EF02D15
S11307B0E801BB24BA94D6CFCE01DF91CF911F912B
S11307C00F91FF90EF90DF90CF90BF900895982FF6
S11307D09F7E29F091509F3018F4815008958FEF37
S11307E00895CF92DF92EF92FF920F931F93CF93CE
S11307F0DF93EC0129D6209721F0C130D10531F0E7
S11308000AC020913902213069F415C020913902BF
S1130810222341F010C0209729F0C130D10509F0FE
S113082077C009C0ECE3F1E08FEF8083818382839A
S1130830C0E0D0E06DC081709078992324F40197D2
S11308408E6F9F6F0196813009F054C0CCE3D1E0E4
S11308500FE311E00F2EFFE0CF2EF02D0F2EFFE15E
S1130860DF2EF02D7E0188818F3FA9F4EDD58170B4
S11308709078992324F401978E6F9F6F019699279E
S11308808130910519F0029721F005C0F701C0826B
S113089002C0F701D0822196C017D10719F72AC0E8
S11308A08E0188818F3FF9F0CFD5B60134D59927D1
S11308B08130910571F08230910591F0892B99F482
S11308C0988180EF890F803108F0892FF8018083A7
S11308D00AC08881803108F4805FF801808303C0F6
S11308E0888175DF88832196EC16FD06C9F6C1E080
S11308F0D0E00EC0CCE3D1E00F2EFFE3EF2EF1E009
S1130900FF2EF02D0F2EF3E0CF2ED12CF02DC8CFDB
S1130910CE01DF91CF911F910F91FF90EF90DF9067
S1130920CF9008950F931F93CF93DF93883070F483
S11309308B01880F880F880F805C8BDCE801085FCF
S11309401F4F8991A9DCC017D107D9F7DF91CF9147
S11309501F910F91089564E171E080E0E3CF089561
S11309606CE071E081E0DECF089564E071E082E044
S1130970D9CF089580E090CC089581E08DCC08957E
S113098082E08ACC089540E050E0E0E2682F70E015
S1130990E2B992B19B01042E02C0359527950A94C1
S11309A0E2F721703327220F331F220F331F292B25
S11309B022B9139A4F5F5F4F4830510549F7149A93
S11309C012B8089590E08A30910558F5FC01EA5B6D
S11309D0FF4FD6C48FE380932F0223C086E0809319
S11309E02F021FC08BE580932F021BC08FE48093DE
S11309F02F0217C086E680932F0213C08DE68093E2
S1130A002F020FC08DE780932F020BC087E08093E5
S1130A102F0207C08FE780932F0203C087E68093DD
S1130A202F0280912F028095AECF08958FEFABCF28
S1130A300895EF92FF920F931F93CF93DF9381302A
S1130A40910551F082309105A9F00097E1F480916D
S1130A503902813011F592C080913802811104C0AD
S1130A60809139028823C9F080913902813009F4D8
S1130A7085C025C080913802813009F18091390206
S1130A80882359F07BC081309105C9F082309105EB
S1130A9009F474C0009709F0D8C001E911E0C0E07E
S1130AA0CF5F8C2FE2DBF80181918F01F5DB80E0D1
S1130AB0DCDBC032A9F7BADF80E090E0C6C0D2DB4D
S1130AC069E571E081E0F1DB80913702DDEC8D9F17
S1130AD0C12D1124C695C695C695CC0F9C2F990F90
S1130AE0990FC90FF82FFC1BCF2FF0932E028F1BE9
S1130AF099E2899F912D112492959F70382F24E6B5
S1130B00929F301911243D9FD12D1124D695D6954D
S1130B10D695D0932D028D1B90E068EE73E0FBD345
S1130B2064E670E0F8D3162F60932C0288E09DDB16
S1130B3080E3810FB1DB89E098DB80E38D0FACDBD0
S1130B408AE093DB80E38C0FA7DB01E811E00F2E32
S1130B50F1E9EF2EF1E0FF2EF02DC1E18C2F85DBC2
S1130B60F80181918F0198DB80E07FDBCF5F0E1568
S1130B701F05A1F75BDF81E090E067C080E2E1E65A
S1130B80F1E0ACE1B1E001900D928A95E1F720919A
S1130B903502ACE2B1E04CE351E030E02C5231409C
S1130BA0CCE1D1E0F901EA0FFB1FEF71FF27EF540D
S1130BB0FE4F80818D93A417B50791F7ACE3B1E0A4
S1130BC0EC91F0E0E45EFE4F80E480831196EC91BA
S1130BD01197F0E0E45EFE4F80831296EC91F0E012
S1130BE0E45EFE4F8083AFE3B1E024E431E08DE2C4
S1130BF0ED91F0E0E45EFE4F8083A217B307C1F7E6
S1130C00E0913402F0E0E45EFE4F8EE3808310E076
S1130C101F5F812F2ADB7E0188818E3311F4AADEC7
S1130C2007C08F3F11F4A9DE03C0803409F4A8DEA5
S1130C302196F701808130DB80E017DB103241F729
S1130C4080913602BFDE82E090E0DF91CF911F9168
S1130C500F91FF90EF900895682F80E090E00AC410
S1130C60089580E090E0FEC3089520913802213079
S1130C7021F480913702F0DF19C08130910589F0A9
S1130C808230910599F00097C1F480914401813438
S1130C90E1F4E7DF81118093370285E08093360227
S1130CA019C0809144018434A9F40FC08091440197
S1130CB08334B1F41092380208C08130910551F0A8
S1130CC08230910569F0009779F41092390280E03E
S1130CD090E0089581E08093390281E090E00895E6
S1130CE01092390282E090E00895CF93DF93CDB75C
S1130CF0DEB760970FB6F894DEBF0FBECDBF8FEF9F
S1130D0081B912B884B915B890EF97B99FE098B932
S1130D108AB91BB818EC00E0F12CE12C54E640E051
S1130D2030E020E004C0162F072FF82EE92E652F9F
S1130D30742F832F922F212F302F4F2D5E2DFED213
S1130D40512F402F3F2D2E2D6115710581059105E1
S1130D5051F70F2EF8ECBF2EF02DA12C912C812CE5
S1130D6004C0B62EA72E982E892E612F702F8F2D9A
S1130D709E2D2B2D3A2D492D582DE0D21B2D0A2DB9
S1130D80F92CE82C611571058105910551F710E9DD
S1130D9001E0F12CE12C04C0162F072FF82EE92EC8
S1130DA06B2D7A2D892D982D212F302F4F2D5E2DCF
S1130DB0C5D2B12EA02E9F2C8E2C611571058105F4
S1130DC0910551F70F2EF0E9BF2EF02DAA24A3941C
S1130DD0912C812C04C0B62EA72E982E892E612F1B
S1130DE0702F8F2D9E2D2B2D3A2D492D582DA6D2A7
S1130DF01B2D0A2DF92CE82C61157105810591052F
S1130E0051F70F2EF8ECEF2EF02DF12C00E010E04E
S1130E1004C0E62EF72E082F192F6B2D7A2D892D5D
S1130E20982D2E2D3F2D402F512F88D2BE2CAF2C24
S1130E30902E812E611571058105910551F768EC9D
S1130E4070E080E090E02E2D3F2D402F512F76D280
S1130E5049015A0164E670E080E090E02E2D3F2DB8
S1130E60402F512F6BD229013A0160E971E080E0F3
S1130E7090E02E2D3F2D402F512F60D280E1E9E4E8
S1130E80F1E0DE01119601900D928A95E1F7EFE110
S1130E90F2E0108281829282A382B4821582168249
S1130EA01782108683EF92E092878187E4E1F2E073
S1130EB01082418252826382748215821682178262
S1130EC0108689E195E092878187E9E0F2E010825B
S1130ED0418252826382748215821682178210863E
S1130EE085E396E092878187EEEFF1E0108221831B
S1130EF0328343835483158216821782108682E8D4
S1130F0090E092878187E3EFF1E010828182928200
S1130F10A382B48215821682178210868EE093E033
S1130F2092878187E8EEF1E0108281829282A38227
S1130F30B48215821682178210868CE593E092871C
S1130F408187EDEDF1E01082218332834383548362
S1130F50158216821782108681EF93E0928781872B
S1130F60E2EDF1E0108281829282A382B482158242
S1130F7016821782108686ED91E0928781876E2D06
S1130F807F2D802F912FE1D8F1D877D9E4DCE8DCEC
S1130F90ECDC80E090E0A3D8CB0159D2CBDA5E013F
S1130FA081E1A80EB11CDE0111967D01F7010191CA
S1130FB011917F01D80115964D915D916D917C91B0
S1130FC0189711968D919D910D90BC91A02D481765
S1130FD059076A077B0781F4F80180810184F2854F
S1130FE0E02D082E000C990B0995D8018C93F8017B
S1130FF01582168217821086F80185819681A78151
S1131000B0850196A11DB11D85839683A783B08702
S1131010AE14BF0459F680913E028823E1F3109286
S11310203E02C1CF9CD008F481E008950CD0D2C018
S1131030CAD040F0C1D030F021F45F3F19F0B3C002
S11310405111FCC0B6C0D7D098F39923C9F35523E6
S1131050B1F3951B550BBB27AA27621773078407A7
S113106038F09F5F5F4F220F331F441FAA1FA9F35D
S113107033D00E2E3AF0E0E830D091505040E6954F
S1131080001CCAF729D0FE2F27D0660F771F881FB0
S1131090BB1F261737074807AB07B0E809F0BB0B9F
S11310A0802DBF01FF2793585F4F2AF09E3F5105C3
S11310B068F079C0C3C05F3FECF3983EDCF38695DB
S11310C077956795B795F7959F5FC9F7880F911D39
S11310D09695879597F90895E1E0660F771F881F25
S11310E0BB1F621773078407BA0720F0621B730BD8
S11310F0840BBA0BEE1F88F7E095089504D068942A
S1131100B1119CC008957FD088F09F5790F0B92FFB
S11311109927B751A0F0D1F0660F771F881F991F48
S11311201AF0BA95C9F712C0B13081F086D0B1E097
S1131130089583C0672F782F8827B85F39F0B93FA7
S1131140CCF3869577956795B395D9F73EF490954A
S11311508095709561957F4F8F4F9F4F0895990F9C
S11311600008550FAA0BE0E8FEEF16161706E8076D
S1131170F907C0F012161306E407F50798F0621B8E
S1131180730B840B950B39F40A2661F0232B242B63
S1131190252B21F408950A2609F4A140A6958FEF82
S11311A0811D811D089597F99F6780E870E060E0D4
S11311B008959FEF80EC089500240A9416161706EC
S11311C018060906089500240A9412161306140634
S11311D005060895092E0394000C11F4882352F097
S11311E0BB0F40F4BF2B11F460FF04C06F5F7F4F4F
S11311F08F4F9F4F089557FD9058440F551F59F036
S11312005F3F71F04795880F97FB991F61F09F3FEF
S113121079F087950895121613061406551FF2CF18
S11312204695F1DF08C0161617061806991FF1CF68
S113123086957105610508940895E894BB2766278F
S11312407727CB0197F908958ADF08F48FEF089583
S11312500BD0C0CFB1DF28F0B6DF18F0952309F02A
S1131260A2CFA7CF1124EACFC6DFA0F3959FD1F375
S1131270950F50E0551F629FF001729FBB27F00D40
S1131280B11D639FAA27F00DB11DAA1F649F662795
S1131290B00DA11D661F829F2227B00DA11D621FE4
S11312A0739FB00DA11D621F839FA00D611D221F9E
S11312B0749F3327A00D611D231F849F600D211D82
S11312C0822F762F6A2F11249F5750408AF0E1F025
S11312D088234AF0EE0FFF1FBB1F661F771F881F6E
S11312E091505040A9F79E3F510570F05CCFA6CFB6
S11312F05F3FECF3983EDCF3869577956795B79559
S1131300F795E7959F5FC1F7FE2B880F911D969582
S1131310879597F9089597FB072E16F4009406D045
S113132077FD08D036D007FC05D03EF49095819522
S11313309F4F0895709561957F4F0895A1E21A2EED
S1131340AA1BBB1BFD010DC0AA1FBB1FEE1FFF1F65
S1131350A217B307E407F50720F0A21BB30BE40BB5
S1131360F50B661F771F881F991F1A9469F76095FC
S11313707095809590959B01AC01BD01CF010895B6
S1131380EE0FFF1F0024001C0BBE0790F691E02D0A
S11313900994AA1BBB1B51E107C0AA1FBB1FA617B8
S11313A0B70710F0A61BB70B881F991F5A95A9F70A
S11313B080959095BC01CD0108958F929F92AF9234
S11313C0BF92CF92DF92EF92FF92CF93DF93EC0123
S11313D0688179818A819B816115710581059105F7
S11313E021F464E279ED8BE597E02DE133EF41E000
S11313F050E04ED049015A019B01AC01A7EAB1E487
S113140063D06B017C01ACEEB4EFA501940168D00C
S1131410DC01CB018C0D9D1DAE1DBF1DB7FF03C0AC
S11314200197A109B04888839983AA83BB839F77D6
S1131430DF91CF91FF90EF90DF90CF90BF90AF906E
S11314409F908F900895B9CF80E091E0B6CFA0E04F
S1131450B0E08093000190930101A0930201B09346
S113146003010895F999FECF92BD81BDF89A992799
S113147080B50895262FF999FECF1FBA92BD81BD7C
S113148020BD0FB6F894FA9AF99A0FBE0196089502
S1131490052E97FB16F400940FD057FD05D04EDFB0
S11314A007FC02D046F408C050954095309521952C
S11314B03F4F4F4F5F4F089590958095709561957C
S11314C07F4F8F4F9F4F08950FD0A59F900DB49FCE
S11314D0900DA49F800D911D11240895B7FFF4CFA2
S11314E0F3DF821B930B0895A29FB001B39FC00149
S11314F0A39F700D811D1124911DB29F700D811D3C
S10D15001124911D0895F894FFCF03
S113150A0100000002061F06061F06021F151F150A
S113151A1F151F1F08080C1F1F0C08082020202055
S113152A20202020202020202020202020202020AD
S113153A202020202020202020202020FFFFFFFF21
S113154AFFFFFFFF20010000001F0214020902FE30
S113155A01F301E801DD01D20153434F52453A2018
S113156A002020202020202020202020202020208D
S113157A202020202020202020202020202020205D
S113158A205072657373204320746F204265676923
S113159A6E5072657373204120746F2053746172A4
S11315AA745072657373204420746F205265736596
S11315BA74FF2020202020202020202020FF20200B
S11315CA2020FF202020202020FF2020202020204F
S10515DA2000EB
S9030000FC
