:100000004FC000006AC0000068C0000066C0000069
:1000100064C0000062C0000060C000005EC000005C
:100020005CC000005AC0000058C0000056C000006C
:1000300054C000008CC1000050C000004EC0000041
:100040004CC000004AC0000048C0000046C000008C
:1000500044C0000042C0000040C000003EC000009C
:100060003CC000003AC0000038C0000036C00000AC
:1000700034C0000032C0000030C000002EC00000BC
:100080002CC000002AC0000028C0000074047804BE
:100090007C048004840488048C04900494049804F0
:1000A00011241FBECFEFD0E4DEBFCDBF11E0A0E032
:1000B000B1E0ECE6F0E100E00BBF02C007900D926A
:1000C000A23DB107D9F722E0A2EDB1E001C01D9237
:1000D000AF33B207E1F74AD5C7C792CFFC010FB6DD
:1000E000F89460913B0270913C0280913D029091A6
:1000F0003E020FBE309721F0608371838283938329
:100100000895209134022130A9F08130910569F0E1
:100110008230910579F00097A1F4809144018134F7
:10012000C1F485E08093320219C080914401843487
:10013000A9F40FC0809144018334B1F410923402C9
:1001400008C08130910551F08230910569F0009727
:1001500079F41092350280E090E0089581E0809378
:10016000350281E090E008951092350282E090E03F
:100170000895009721F08130910531F00AC08091F7
:100180003502813061F410C080913502882339F046
:100190000BC0009721F08130910569F405C01092E1
:1001A000310280E090E00895809131028F5F80936A
:1001B000310281E090E00895EF92FF920F931F9338
:1001C000CF93DF93009721F08130910549F00EC065
:1001D00020913502213009F07EC0109233020AC00E
:1001E00080913502882309F474C004C081309105E0
:1001F00009F071C060913302AFE3B1E004E411E0B3
:100200004FE351E07FEF7D018C918F3F81F0ECE374
:10021000F1E080818F3F39F0E7019881891303C0B5
:100220006F5F7883708331964E175F0791F7119651
:10023000A017B10741F760933302409131026091FA
:10024000300270912B02B0913402A091320280E111
:1002500020E030E050E0C1E0FA01E20FF31FEF715F
:10026000FF27EF54FE4F9081903261F068130AC06F
:100270007F5F723020F4A23020F0A15003C070E004
:1002800001C0BC2F2F5F3F4F8F5F803229F77093E3
:100290002B0290912A02ECE3F1E02FE331E040E001
:1002A00051E08191681309C0923020F4A23020F00F
:1002B000A15003C0942F01C0B52FE217F30789F7AF
:1002C00090932A02B0933402A093320281E090E02E
:1002D00002C080E090E0DF91CF911F910F91FF90DD
:1002E000EF90089560934501709346018093470114
:1002F00090934801609336027093370280933802DE
:100300009093390208958BE0809381008DE790E00F
:10031000909389008093880082E080936F00109210
:100320008500109284008091450190914601A09132
:100330004701B09148018093360290933702A09311
:100340003802B09339028FB780688FBF08951F922B
:100350000F920FB60F9211248F939F93AF93BF9379
:100360008091360290913702A0913802B091390203
:100370000197A109B1098093360290933702A093A7
:100380003802B0933902892B8A2B8B2B99F481E0A8
:1003900080933A028091450190914601A0914701D6
:1003A000B09148018093360290933702A0933802AF
:1003B000B0933902BF91AF919F918F910F900FBE73
:1003C0000F901F901895181619065CF008950000FC
:1003D00021503109E1F74F5F5F4F8417950719F4FA
:1003E000089540E050E027E033E0F1CF10988BB95A
:1003F000119A0000119882E090E0E5CF089581E025
:10040000F5CF0895813118F48158F0CF08958155C2
:10041000EDCF089584E690E0D6DF88E3E7DF86E05D
:10042000E5DF8FE0E3DF81E0E1DF8AE090E0CBCF42
:100430000895109A8BB9119A0000119881E090E00C
:10044000C2CF08950F931F93CF93DF93182FEB0123
:10045000D6DF8881882351F001E0010F812FD2DFA0
:100460008991E7DF102F88818111F6CFDF91CF913D
:100470001F910F9108958FEE88B90000309B29C01D
:10048000319B29C0329B29C0339B29C08FED88B98D
:100490000000309B26C0319B26C0329B26C0339B78
:1004A00026C08FEB88B90000309B23C0319B23C04E
:1004B000329B23C0339B23C08FE788B90000309B59
:1004C00020C0319B20C0329B20C0339B20C080E0E5
:1004D000089580E2089584E3089587E308958AE209
:1004E000089582E3089585E3089588E3089580E3FD
:1004F000089583E3089586E3089589E3089583E2E8
:10050000089581E4089582E4089583E4089584E4DD
:100510000895CF93DF93EC01AEDF80934401CE01C9
:10052000DF91CF910895982F9F7E91509F3008F4CE
:10053000815008958F3010F48F5F089590EF980FD9
:100540009F3008F48F5F0895009721F08130910566
:1005500031F00AC080913502813061F410C0809181
:100560003502882339F00BC0009721F081309105C6
:10057000C1F505C01092300280E090E008958091AE
:100580004401823361F49091300280EF890F803111
:1005900008F0892F8093300281E090E0089588333D
:1005A00051F480913002803108F4805F80933002F2
:1005B00081E090E00895843341F480913002B3DF0C
:1005C0008093300281E090E00895863341F4809179
:1005D0003002B0DF8093300281E090E0089581E046
:1005E00090E00895BF92CF92DF92EF92FF920F9327
:1005F0001F93CF93DF93009721F08130910531F065
:100600000AC080913502813069F418C080913502AA
:10061000882341F013C0009729F08130910509F03B
:1006200056C00CC0EFE3F1E08FEF808381838283BB
:100630008383848315B880E090E049C080914401B1
:100640008533C9F580913F018F3F49F0E0E4F1E047
:1006500081E090E0AC0121912F3F51F402C040E0D5
:1006600050E0FA01E15CFE4F80913002808323C0AC
:1006700001968530910571F71EC088818F3F41F04A
:10068000982F9F7E9F3011F4B88202C053DF888379
:100690002196CE15DF0589F790E0F80181918F0151
:1006A0008F3F11F4990F9F5F0E151F05B1F795B994
:1006B00081E090E00CC00FE311E00F2EF4E4EF2E88
:1006C000F1E0FF2EF02DE801BB24BA94D6CFDF91E4
:1006D000CF911F910F91FF90EF90DF90CF90BF903F
:1006E0000895982F9F7E29F091509F3018F48150E3
:1006F00008958FEF0895CF92DF92EF92FF920F93BC
:100700001F93CF93DF93EC0166D4209721F0C13083
:10071000D10531F00AC020913502213069F415C0AD
:1007200020913502222341F010C0209729F0C130DA
:10073000D10509F077C009C0ECE3F1E08FEF8083C9
:1007400081838283C0E0D0E06DC08170907899236E
:1007500024F401978E6F9F6F0196813009F054C089
:10076000CCE3D1E00FE311E00F2EFFE0CF2EF02D10
:100770000F2EFFE1DF2EF02D7E0188818F3FA9F43F
:100780002AD481709078992324F401978E6F9F6FFB
:10079000019699278130910519F0029721F005C043
:1007A000F701C08202C0F701D0822196C017D1079D
:1007B00019F72AC08E0188818F3FF9F00CD4B60159
:1007C00071D399278130910571F08230910591F0B4
:1007D000892B99F4988180EF890F803108F0892F57
:1007E000F80180830AC08881803108F4805FF801B5
:1007F000808303C0888175DF88832196EC16FD060F
:10080000C9F6C1E0D0E00EC0CCE3D1E00F2EFFE38B
:10081000EF2EF1E0FF2EF02D0F2EF3E0CF2ED12C96
:10082000F02DC8CFCE01DF91CF911F910F91FF9096
:10083000EF90DF90CF9008950F931F93CF93DF93A6
:10084000883070F48B01880F880F880F805CCEDDB4
:10085000E801085F1F4F8991ECDDC017D107D9F778
:10086000DF91CF911F910F91089564E171E080E0D5
:10087000E3CF08956CE071E081E0DECF089564E09D
:1008800071E082E0D9CF089580E0D3CD089581E072
:10089000D0CD089582E0CDCD089540E050E0E0E273
:1008A000682F70E0E2B992B19B01042E02C0359529
:1008B00027950A94E2F721703327220F331F220F66
:1008C000331F292B22B9139A4F5F5F4F48305105D0
:1008D00049F7149A12B8089590E08A30910558F5B6
:1008E000FC01EA5BFF4F13C38FE380932F0223C009
:1008F00086E080932F021FC08BE580932F021BC0E0
:100900008FE480932F0217C086E680932F0213C0D6
:100910008DE680932F020FC08DE780932F020BC0CE
:1009200087E080932F0207C08FE780932F0203C0D8
:1009300087E680932F0280912F028095AECF089595
:100940008FEFABCF0895EF92FF920F931F93CF934A
:10095000DF938130910551F082309105A9F0009725
:10096000E1F480913502813011F592C0809134021A
:10097000811104C0809135028823C9F0809135022D
:10098000813009F485C025C080913402813009F19D
:1009900080913502882359F07BC081309105C9F0E0
:1009A0008230910509F474C0009709F0D8C001E9BC
:1009B00011E0C0E0CF5F8C2F25DDF80181918F0120
:1009C00038DD80E01FDDC032A9F7BADF80E090E0BB
:1009D000C6C015DD69E571E081E034DD8091330248
:1009E000DDEC8D9FC12D1124C695C695C695CC0F03
:1009F0009C2F990F990FC90FF82FFC1BCF2FF09345
:100A00002E028F1B99E2899F912D112492959F7040
:100A1000382F24E6929F301911243D9FD12D1124A7
:100A2000D695D695D695D0932D028D1B90E068EE85
:100A300073E038D264E670E035D2162F60932C0252
:100A400088E0E0DC80E3810FF4DC89E0DBDC80E33C
:100A50008D0FEFDC8AE0D6DC80E38C0FEADC01E866
:100A600011E00F2EF1E9EF2EF1E0FF2EF02DC1E1A4
:100A70008C2FC8DCF80181918F01DBDC80E0C2DCC7
:100A8000CF5F0E151F05A1F75BDF81E090E067C027
:100A900080E2E1E6F1E0ACE1B1E001900D928A95EF
:100AA000E1F720913102ACE2B1E04CE351E030E0FB
:100AB0002C523140CCE1D1E0F901EA0FFB1FEF717C
:100AC000FF27EF54FE4F80818D93A417B50791F750
:100AD000ACE3B1E0EC91F0E0E45EFE4F80E48083B3
:100AE0001196EC911197F0E0E45EFE4F8083129630
:100AF000EC91F0E0E45EFE4F8083AFE3B1E024E4EC
:100B000031E08DE2ED91F0E0E45EFE4F8083A217CC
:100B1000B307C1F7E0913002F0E0E45EFE4F8EE3F0
:100B2000808310E01F5F812F6DDC7E0188818E3312
:100B300011F4AADE07C08F3F11F4A9DE03C0803490
:100B400009F4A8DE2196F701808173DC80E05ADC8D
:100B5000103241F780913202BFDE82E090E0DF91F7
:100B6000CF911F910F91FF90EF900895CF93DF9356
:100B7000CDB7DEB760970FB6F894DEBF0FBECDBF1E
:100B80008FEF81B912B884B915B890EF97B99FE08B
:100B900098B98AB91BB818EC00E0F12CE12C54E6A6
:100BA00040E030E020E004C0162F072FF82EE92E99
:100BB000652F742F832F922F212F302F4F2D5E2DD5
:100BC00084D1512F402F3F2D2E2D611571058105A8
:100BD000910551F70F2EF8ECBF2EF02DA12C912C82
:100BE000812C04C0B62EA72E982E892E612F702F2F
:100BF0008F2D9E2D2B2D3A2D492D582D66D11B2D35
:100C00000A2DF92CE82C611571058105910551F724
:100C100010E901E0F12CE12C04C0162F072FF82E6B
:100C2000E92E6B2D7A2D892D982D212F302F4F2DC8
:100C30005E2D4BD1B12EA02E9F2C8E2C61157105EF
:100C40008105910551F70F2EF0E9BF2EF02DAA2452
:100C5000A394912C812C04C0B62EA72E982E892EF9
:100C6000612F702F8F2D9E2D2B2D3A2D492D582D14
:100C70002CD11B2D0A2DF92CE82C6115710581054D
:100C8000910551F70F2EF8ECEF2EF02DF12C00E02E
:100C900010E004C0E62EF72E082F192F6B2D7A2DA9
:100CA000892D982D2E2D3F2D402F512F0ED1BE2C4A
:100CB000AF2C902E812E611571058105910551F79C
:100CC00068EC70E080E090E02E2D3F2D402F512FFA
:100CD000FCD049015A0164E670E080E090E02E2DDE
:100CE0003F2D402F512FF1D029013A0160E971E0E9
:100CF00080E090E02E2D3F2D402F512FE6D080E157
:100D0000E9E4F1E0DE01119601900D928A95E1F798
:100D1000EFE1F2E0108281829282A382B482158296
:100D200016821782108689E892E092878187E4E133
:100D3000F2E01082418252826382748215821682AE
:100D40001782108683EA94E092878187E9E0F2E0D7
:100D500010824182528263827482158216821782C7
:100D6000108681E890E092878187EEEFF1E01082B3
:100D7000218332834383548315821682178210861F
:100D800089EB90E092878187E3EFF1E01082818226
:100D90009282A382B482158216821782108684EA18
:100DA00092E092878187E8EEF1E010828182928260
:100DB000A382B482158216821782108682EF92E097
:100DC00092878187EDEDF1E01082218332834383A6
:100DD000548315821682178210868BE793E09287E0
:100DE0008187E2EDF1E0108281829282A382B48257
:100DF00015821682178210868CED90E0928781878B
:100E00006E2D7F2D802F912F6DDA7DDA03DB2DDDA6
:100E100031DD35DD80E090E061D9CB01DFD05E01CE
:100E200081E1A80EB11CDE0111967D01F70101914F
:100E300011917F01D80115964D915D916D917C9135
:100E4000189711968D919D910D90BC91A02D4817EA
:100E500059076A077B0781F4F80180810184F285D4
:100E6000E02D082E000C990B0995D8018C93F80100
:100E70001582168217821086F80185819681A781D6
:100E8000B0850196A11DB11D85839683A783B08788
:100E9000AE14BF0459F680913A028823E1F3109210
:100EA0003A02C1CF97FB072E16F4009406D077FDC7
:100EB00008D036D007FC05D03EF4909581959F4F21
:100EC0000895709561957F4F0895A1E21A2EAA1B8F
:100ED000BB1BFD010DC0AA1FBB1FEE1FFF1FA217EA
:100EE000B307E407F50720F0A21BB30BE40BF50BE7
:100EF000661F771F881F991F1A9469F76095709570
:100F0000809590959B01AC01BD01CF010895EE0F36
:100F1000FF1F0024001C0BBE0790F691E02D0994E2
:100F2000AA1BBB1B51E107C0AA1FBB1FA617B7070F
:100F300010F0A61BB70B881F991F5A95A9F780952B
:100F40009095BC01CD0108958F929F92AF92BF9270
:100F5000CF92DF92EF92FF92CF93DF93EC01688103
:100F600079818A819B81611571058105910521F443
:100F700064E279ED8BE597E02DE133EF41E050E05D
:100F800038D049015A019B01AC01A7EAB1E44DD028
:100F90006B017C01ACEEB4EFA501940152D0DC01F1
:100FA000CB018C0D9D1DAE1DBF1DB7FF03C001976A
:100FB000A109B04888839983AA83BB839F77DF9177
:100FC000CF91FF90EF90DF90CF90BF90AF909F9028
:100FD0008F900895B9CF80E091E0B6CFA0E0B0E067
:100FE0008093000190930101A0930201B09303014B
:100FF0000895052E97FB16F400940FD057FD05D0E9
:1010000064DF07FC02D046F408C050954095309547
:1010100021953F4F4F4F5F4F089590958095709564
:1010200061957F4F8F4F9F4F08950FD0A59F900DD3
:10103000B49F900DA49F800D911D11240895B7FFBA
:10104000F4CFF3DF821B930B0895A29FB001B39FEF
:10105000C001A39F700D811D1124911DB29F700DC1
:0C106000811D1124911D0895F894FFCF0C
:10106C000100000002061F06061F06021F151F15B1
:10107C001F151F1F08080C1F1F0C080820202020FC
:10108C002020202020202020202020202020202054
:10109C00202020202020202020202020FFFFFFFFC8
:1010AC00FFFFFFFF20010000001F0214020902FED7
:1010BC0001F301E801DD01D20153434F52453A20BF
:1010CC000020202020202020202020202020202034
:1010DC002020202020202020202020202020202004
:1010EC00205072657373204320746F2042656769CA
:1010FC006E5072657373204120746F20537461724B
:10110C00745072657373204420746F20526573653C
:10111C0074FF2020202020202020202020FF2020B1
:10112C002020FF202020202020FF202020202020F5
:02113C00200091
:00000001FF
