S0150000437573746F6D50726F6A6563742E73726563BD
S11300004FC000006BC0000069C0000067C0000062
S113001065C0000063C0000061C000005FC0000054
S11300205DC000005BC0000059C0000057C0000064
S113003055C00000ACC0000051C000004FC000001B
S11300404DC000004BC0000049C0000047C0000084
S113005045C0000043C0000041C000003FC0000094
S11300603DC000003BC0000039C0000037C00000A4
S113007035C0000033C0000031C000002FC00000B4
S11300802DC000002BC0000029C000004205460519
S11300904A054E05520556055A055E056205660574
S11300A011241FBECFEFD0E4DEBFCDBF11E0A0E02E
S11300B0B1E0E0E9F5E100E00BBF02C007900D926A
S11300C0AA3BB107D9F722E0AAEBB1E001C01D9227
S11300D0A532B207E1F751D60C94C60A91CF009726
S11300E021F08130910531F00AC080911F028130E6
S11300F061F410C080911F02882339F00BC000976F
S113010021F08130910569F405C010921B0280E052
S113011090E0089580911B028F5F80931B0281E021
S113012090E0089560936501709366018093670180
S113013090936801609320027093210280932202BD
S11301409093230208958BE0809381008DE790E0E3
S1130150909389008093880082E080936F001092CE
S11301608500109284008091650190916601A091B0
S11301706701B09168018093200290932102A093BB
S11301802202B09323028FB780688FBF08951F9215
S11301900F920FB60F9211248F939F93AF93BF9337
S11301A08091200290912102A0912202B091230219
S11301B00197A109B1098093200290932102A09391
S11301C02202B0932302892B8A2B8B2B99F481E092
S11301D0809324028091650190916601A09167014A
S11301E0B09168018093200290932102A09322028F
S11301F0B0932302BF91AF919F918F910F900FBE47
S11302000F901F901895181619065CF008950000B9
S113021021503109E1F74F5F5F4F8417950719F4B7
S1130220089540E050E027E033E0F1CF10988BB917
S1130230119A0000119882E090E0E5CF089581E0E2
S1130240F5CF0895813118F48158F0CF0895815580
S1130250EDCF089584E690E0D6DF88E3E7DF86E01B
S1130260E5DF8FE0E3DF81E0E1DF8AE090E0CBCF00
S11302700895109A8BB9119A0000119881E090E0CA
S1130280C2CF0895CF92DF92EF92FF926B017C016F
S11302909B01AC01609115027091160280911702C6
S11302A09091180202D7882309F44FC020E030E06F
S11302B0A901C701B601F9D6811106C0E1E9F0E050
S11302C080818870808305C0E1E9F0E080818360EB
S11302D0808328E539E344E75FE3C701B601E5D647
S11302E088233CF48FEF9FEF9093990080939800BC
S11302F023C020E034E244EF56E4C701B601E7D757
S113030018162CF4109299001092980015C020E051
S113031030E040E053E4C701B601DDD79B01AC01F6
S113032060E074E284EF9AE4C4D62BD7615071097B
S1130330709399006093980016BCC0921502D092F5
S11303401602E0921702F0921802FF90EF90DF90ED
S1130350CF9008957F928F929F92AF92BF92CF9247
S1130360DF92EF92FF920F931F93CF93DF93009747
S113037021F08130910539F00CC020911F02213009
S113038009F09EC00AC080911F02882309F496C018
S113039004C08130910509F093C00FE511E00F2EE0
S11303A0F4E68F2EF1E09F2EF02D0F2EFFE5AF2EF9
S11303B0F1E0BF2EF02D77247A947801F801808142
S11303C08F3FD1F0CCE5D1E088818F3F89F0F701F0
S11303D0908189130DC060E070E08CED93E452DFEE
S11303E080911D028F5F80931D02F70170827882D5
S11303F02196AC16BD0641F70F5F1F4F801691067C
S1130400E1F6C0E100E010E0D1E080911B02F801C8
S1130410E80FF11DEF71FF27E756FE4F8081803210
S1130420F9F0809119028C131BC0809113028F5F25
S113043080931302823090F480911C02823058F031
S113044064EA70ED82E893E41DDF80911C02815020
S113045080931C0205C0D0931E0202C010921302A6
S11304600F5F1F4FCF5FC03281F6CCE5D1E00FE5BF
S113047011E0FF24F394999180911902981318C004
S113048080911202823090F480911C02823058F0E4
S11304906BE774ED82E993E4F5DE80911C028150F0
S11304A080931C0205C0F0921E0202C01092120238
S11304B00C171D0701F781E090E002C080E090E096
S11304C0DF91CF911F910F91FF90EF90DF90CF902C
S11304D0BF90AF909F908F907F90089580E4809319
S11304E090008BE08093910060E070E0CB01CACE75
S11304F008958FEE88B90000309B29C0319B29C034
S1130500329B29C0339B29C08FED88B90000309BF2
S113051026C0319B26C0329B26C0339B26C08FEB5E
S113052088B90000309B23C0319B23C0329B23C079
S1130530339B23C08FE788B90000309B20C0319BD8
S113054020C0329B20C0339B20C080E0089580E20D
S1130550089584E3089587E308958AE2089582E381
S1130560089585E3089588E3089580E3089583E377
S1130570089586E3089589E3089583E2089581E464
S1130580089582E4089583E4089584E40895CF935C
S1130590DF93EC01AEDF80936401CE01DF91CF9154
S11305A00895982F9F7E91509F3008F481500895AC
S11305B08F3010F48F5F089590EF980F9F3008F4F8
S11305C08F5F0895009721F08130910531F00AC0C2
S11305D080911F02813061F410C080911F02882332
S11305E039F00BC0009721F081309105C1F505C0A9
S11305F01092190280E090E00895809164018233A2
S113060061F49091190280EF890F803108F0892FED
S11306108093190281E090E00895883351F4809129
S11306201902803108F4805F8093190281E090E020
S11306300895843341F480911902B3DF8093190241
S113064081E090E00895863341F480911902B0DF8F
S11306508093190281E090E0089581E090E008958C
S1130660BF92CF92DF92EF92FF920F931F93CF939B
S1130670DF93EC0160E070E0CB0104DE209721F011
S1130680C130D10531F00AC080911F02813069F474
S113069018C080911F02882341F013C0209729F0CD
S11306A0C130D10509F05CC00CC0EFE5F1E08FEF7B
S11306B08083818382838383848315B8C0E0D0E000
S11306C04FC080916401853309F03EC060E070ED55
S11306D082E094E4D7DD80915F018F3F49F0E0E64A
S11306E0F1E081E090E0AC0121912F3F51F402C090
S11306F040E050E0FA01E15AFE4F809119028083F4
S113070023C001968530910571F71EC088818F3F03
S113071041F0982F9F7E9F3011F4B88202C048DFC9
S113072088832196CE15DF0589F790E0F801819141
S11307308F018F3F11F4990F9F5F0E151F05B1F7BD
S113074095B9C1E0D0E00CC00FE511E00F2EF4E63E
S1130750EF2EF1E0FF2EF02DE801BB24BA94D6CFA2
S1130760CE01DF91CF911F910F91FF90EF90DF9019
S1130770CF90BF900895982F9F7E29F091509F307D
S113078018F4815008958FEF08954F925F926F92FD
S11307907F928F929F92AF92BF92CF92DF92EF920D
S11307A0FF920F931F93CF93DF9300D000D000D01C
S11307B0CDB7DEB78C018BD60115110521F00130C0
S11307C0110531F00AC020911F02213071F416C0C6
S11307D020911F02222349F011C00115110529F0AF
S11307E00130110509F0DEC009C0ECE5F1E08FEF3E
S11307F080838183828300E010E0D4C0817090788C
S1130800992324F401978E6F9F6F0196813079F5B7
S11308100CE511E00F2EFFE5EF2EF1E0FF2EF02D99
S11308200F2EFFE0AF2EF02D0F2EFFE1BF2EF02D87
S11308306801F80180818F3FA9F449D681709078CE
S1130840992324F401978E6F9F6F01969927813025
S1130850910519F0029721F005C0F601A08202C0AB
S1130860F601B0820F5F1F4F0E151F0509F78FEFBA
S11308708C838D838E8319821A821B820F2EFCE552
S1130880CF2EF1E0DF2EF02D8E010C5F1F4F0F2EC7
S1130890FFE58F2EF1E09F2EF02D580176010F2EEB
S11308A0F3E06F2E712CF02DF70180818F3F19F149
S11308B00ED6B30173D599278130910579F0823032
S11308C09105A1F0892BB9F4F701908180EF890F8C
S11308D0803108F0892FF50180830DC0F7018081F4
S11308E0803108F4805FF501808305C0F7018081C1
S11308F042DFF5018083FFEFEF1AFF0A8FEFA81A9A
S1130900B80AE814F90481F6DE011196CE010796BF
S11309109D014CE551E05801FF24F394F5017191D8
S11309205F01FA016191AF01761302C0F901F0820F
S11309302F5F3F4FA816B90689F740911B02F0902C
S1130940190260E120E030E050E0EE24E394FA0183
S1130950E20FF31FEF71FF27E756FE4F7081F80196
S1130960703219F0F61201C0E0823196E817F907E7
S1130970B9F72F5F3F4F6F5F603249F79E012C5FDD
S11309803F4F8D91811104C0F8018081F60180836D
S11309900F5F1F4FFFEFCF1ADF0A2A173B0789F7B4
S11309A001E010E0C80126960FB6F894DEBF0FBE32
S11309B0CDBFDF91CF911F910F91FF90EF90DF900A
S11309C0CF90BF90AF909F908F907F906F905F90EB
S11309D04F9008950F931F93CF93DF93883070F453
S11309E08B01880F880F880F805C20DCE801085F8A
S11309F01F4F89913EDCC017D107D9F7DF91CF9102
S1130A001F910F91089564E571E080E0E3CF0895AC
S1130A106CE471E081E0DECF089564E471E082E08B
S1130A20D9CF089580E025CC089581E022CC0895A3
S1130A3082E01FCC089540E050E0E0E2682F70E0CF
S1130A40E2B992B19B01042E02C0359527950A9410
S1130A50E2F721703327220F331F220F331F292B74
S1130A6022B9139A4F5F5F4F4830510549F7149AE2
S1130A7012B8089590E08A30910558F5FC01EA5BBC
S1130A80FF4FC1C48FE38093140223C086E0809398
S1130A9014021FC08BE5809314021BC08FE4809363
S1130AA0140217C086E68093140213C08DE6809367
S1130AB014020FC08DE7809314020BC087E080936B
S1130AC0140207C08FE78093140203C087E6809363
S1130AD01402809114028095AECF08958FEFABCFAE
S1130AE008950F931F93CF93DF938130910561F0A5
S1130AF082309105C1F0009709F054C080911F0223
S1130B00813009F064C058C080911E02811105C073
S1130B1080911F02882309F45AC080911F028130FA
S1130B2009F44AC050C080911E028130B1F587DBC0
S1130B30D5DF80911D023DEC839F212D1124269544
S1130B4026952695220F922F990F990F290F482F3A
S1130B50421B242F841B99E2899F912D1124929585
S1130B609F70E82F54E6959FE0191124E39F312DDF
S1130B701124369536953695E4E2F1E0831B90E036
S1130B8068EE73E00BD464E670E008D4605D6587BA
S1130B90305D3687205D278716C080911F02882329
S1130BA0B1F00AC08130910571F08230910521F0D5
S1130BB0009709F08BC00BC004E011E084E291E0DF
S1130BC0F80120E224C004E211E0C0E012C009E709
S1130BD011E0C0E0CF5F8C2F35DBF80181918F01EC
S1130BE048DB80E02FDBC032A9F778DF80E090E0BB
S1130BF06DC0CF5F8C2F26DBF80181918F0139DB2B
S1130C0080E020DBC032A9F781E090E05FC021934F
S1130C108E179F07E1F740911B02A4E1B1E050E079
S1130C20401B510B40515109FA01EA0FFB1FEF71B0
S1130C30FF27E756FE4F20812D938A179B07A1F7C4
S1130C40ACE5B1E0EC91F0E0EC5FFE4F80E4808332
S1130C501196EC911197F0E0EC5FFE4F80831296B1
S1130C60EC91F0E0EC5FFE4F8083AFE5B1E024E669
S1130C7031E08DE2ED91F0E0EC5FFE4F80832A17C6
S1130C803B07C1F7E0911902F0E0EC5FFE4F8EE301
S1130C908083D0E0DF5F8D2FD5DAF801C1918F0119
S1130CA0CE3311F4BFDE07C0CF3F11F4BEDE03C064
S1130CB0C03409F4BDDE8C2FDCDA80E0C3DAD03234
S1130CC049F780911C02D6DE82E090E0DF91CF915B
S1130CD01F910F910895682F80E090E00EC408954D
S1130CE080E090E002C4089520911E02213021F496
S1130CF080911D02F0DF1DC081309105A9F0823082
S1130D009105B9F00097E1F480916401813401F513
S1130D10E7DF811180931D0285E080931C0280919E
S1130D201A0290E0D7D31EC0809164018434D1F4B8
S1130D300FC0809164018334D9F410921E0208C05C
S1130D408130910579F08230910591F00097A1F4FA
S1130D5080911A028F5F80931A0210921F0280E022
S1130D6090E0089581E080931F0281E090E008956F
S1130D7010921F0282E090E00895CF93DF93CDB7E5
S1130D80DEB760970FB6F894DEBF0FBECDBF8FEF0E
S1130D9081B912B884B915B890EF97B99FE098B9A2
S1130DA08AB91BB818EC00E0F12CE12C54E640E0C1
S1130DB030E020E004C0162F072FF82EE92E652F0F
S1130DC0742F832F922F212F302F4F2D5E2DF9D288
S1130DD0512F402F3F2D2E2D611571058105910551
S1130DE051F70F2EF8ECBF2EF02DA12C912C812C55
S1130DF004C0B62EA72E982E892E612F702F8F2D0A
S1130E009E2D2B2D3A2D492D582DDBD21B2D0A2D2D
S1130E10F92CE82C611571058105910551F710E94C
S1130E2001E0F12CE12C04C0162F072FF82EE92E37
S1130E306B2D7A2D892D982D212F302F4F2D5E2D3E
S1130E40C0D2B12EA02E9F2C8E2C61157105810568
S1130E50910551F70F2EF0E9BF2EF02DAA24A3948B
S1130E60912C812C04C0B62EA72E982E892E612F8A
S1130E70702F8F2D9E2D2B2D3A2D492D582DA1D21B
S1130E801B2D0A2DF92CE82C61157105810591059E
S1130E9051F70F2EF8ECEF2EF02DF12C00E010E0BE
S1130EA004C0E62EF72E082F192F6B2D7A2D892DCD
S1130EB0982D2E2D3F2D402F512F83D2BE2CAF2C99
S1130EC0902E812E611571058105910551F768EC0D
S1130ED070E080E090E02E2D3F2D402F512F71D2F5
S1130EE049015A0164E670E080E090E02E2D3F2D28
S1130EF0402F512F66D229013A0160E971E080E068
S1130F0090E02E2D3F2D402F512F5BD280E1E9E65A
S1130F10F1E0DE01119601900D928A95E1F7E7E088
S1130F20F2E0108281829282A382B48215821682B8
S1130F301782108687EC92E092878187ECEFF1E0CC
S1130F4010824182528263827482158216821782D1
S1130F50108681E795E092878187E1EFF1E01082C6
S1130F6041825282638274821582168217821086AD
S1130F7084E796E092878187E6EEF1E01082218390
S1130F8032834383548315821682178210868FE638
S1130F9090E092878187EBEDF1E01082818292826A
S1130FA0A382B482158216821782108682EE92E0A2
S1130FB092878187E0EDF1E0108281829282A382A0
S1130FC0B482158216821782108680E393E092879A
S1130FD08187E5ECF1E010822183328343835483DB
S1130FE0158216821782108685EC93E0928781879A
S1130FF0EAEBF1E0108281829282A382B4821582AC
S11310001682178210868AEA91E0928781876E2D74
S11310107F2D802F912F86D896D81CD9F4DCF8DC4C
S1131020FCDC5CDA5E0181E1A80EB11CDE011196E4
S11310307D01F701019111917F01D80115964D9120
S11310405D916D917C91189711968D919D910D9064
S1131050BC91A02D481759076A077B0781F4F80152
S113106080810184F285E02D082E000C990B0995EE
S1131070D8018C93F8011582168217821086F80124
S113108085819681A781B0850196A11DB11D8583B7
S11310909683A783B087AE14BF0459F680912402C7
S11310A08823E1F310922402C1CF9CD008F481E09C
S11310B008950CD0D2C0CAD040F0C1D030F021F491
S11310C05F3F19F0B3C05111FCC0B6C0D7D098F33C
S11310D09923C9F35523B1F3951B550BBB27AA27B5
S11310E062177307840738F09F5F5F4F220F331F27
S11310F0441FAA1FA9F333D00E2E3AF0E0E830D0F3
S113110091505040E695001CCAF729D0FE2F27D0F5
S1131110660F771F881FBB1F261737074807AB07C3
S1131120B0E809F0BB0B802DBF01FF2793585F4F38
S11311302AF09E3F510568F079C0C3C05F3FECF3CD
S1131140983EDCF3869577956795B795F7959F5FFD
S1131150C9F7880F911D9695879597F90895E1E051
S1131160660F771F881FBB1F621773078407BA07B0
S113117020F0621B730B840BBA0BEE1F88F7E0950B
S1131180089504D06894B1119CC008957FD088F06C
S11311909F5790F0B92F9927B751A0F0D1F0660F5F
S11311A0771F881F991F1AF0BA95C9F712C0B1307A
S11311B081F086D0B1E0089583C0672F782F882707
S11311C0B85F39F0B93FCCF3869577956795B395B9
S11311D0D9F73EF490958095709561957F4F8F4F28
S11311E09F4F0895990F0008550FAA0BE0E8FEEFF2
S11311F016161706E807F907C0F012161306E407D7
S1131200F50798F0621B730B840B950B39F40A26CF
S113121061F0232B242B252B21F408950A2609F4AD
S1131220A140A6958FEF811D811D089597F99F67B1
S113123080E870E060E008959FEF80EC089500245A
S11312400A941616170618060906089500240A9427
S113125012161306140605060895092E0394000CAD
S113126011F4882352F0BB0F40F4BF2B11F460FF3C
S113127004C06F5F7F4F8F4F9F4F089557FD905865
S1131280440F551F59F05F3F71F04795880F97FB46
S1131290991F61F09F3F79F0879508951216130600
S11312A01406551FF2CF4695F1DF08C0161617062F
S11312B01806991FF1CF8695710561050894089564
S11312C0E894BB2766277727CB0197F908958ADF2F
S11312D008F48FEF08950BD0C0CFB1DF28F0B6DF4C
S11312E018F0952309F0A2CFA7CF1124EACFC6DFC7
S11312F0A0F3959FD1F3950F50E0551F629FF00125
S1131300729FBB27F00DB11D639FAA27F00DB11D7D
S1131310AA1F649F6627B00DA11D661F829F222706
S1131320B00DA11D621F739FB00DA11D621F839F8D
S1131330A00D611D221F749F3327A00D611D231F63
S1131340849F600D211D822F762F6A2F11249F57B1
S113135050408AF0E1F088234AF0EE0FFF1FBB1FD4
S1131360661F771F881F91505040A9F79E3F510573
S113137070F05CCFA6CF5F3FECF3983EDCF386952C
S113138077956795B795F795E7959F5FC1F7FE2B1E
S1131390880F911D9695879597F9089597FB072EC9
S11313A016F4009406D077FD08D036D007FC05D09B
S11313B03EF4909581959F4F0895709561957F4F68
S11313C00895A1E21A2EAA1BBB1BFD010DC0AA1F82
S11313D0BB1FEE1FFF1FA217B307E407F50720F09A
S11313E0A21BB30BE40BF50B661F771F881F991F15
S11313F01A9469F760957095809590959B01AC015E
S1131400BD01CF010895EE0FFF1F0024001C0BBE89
S11314100790F691E02D0994AA1BBB1B51E107C06C
S1131420AA1FBB1FA617B70710F0A61BB70B881F70
S1131430991F5A95A9F780959095BC01CD010895FF
S11314408F929F92AF92BF92CF92DF92EF92FF92D0
S1131450CF93DF93EC01688179818A819B81611547
S113146071058105910521F464E279ED8BE597E03E
S11314702DE133EF41E050E04ED049015A019B0188
S1131480AC01A7EAB1E463D06B017C01ACEEB4EF2C
S1131490A501940168D0DC01CB018C0D9D1DAE1D0E
S11314A0BF1DB7FF03C00197A109B0488883998382
S11314B0AA83BB839F77DF91CF91FF90EF90DF905A
S11314C0CF90BF90AF909F908F900895B9CF80E058
S11314D091E0B6CFA0E0B0E08093000190930101C9
S11314E0A0930201B09303010895F999FECF92BD30
S11314F081BDF89A992780B50895262FF999FECFD2
S11315001FBA92BD81BD20BD0FB6F894FA9AF99A1C
S11315100FBE01960895052E97FB16F400940FD084
S113152057FD05D04EDF07FC02D046F408C05095A5
S11315304095309521953F4F4F4F5F4F08959095BB
S11315408095709561957F4F8F4F9F4F08950FD071
S1131550A59F900DB49F900DA49F800D911D112403
S11315600895B7FFF4CFF3DF821B930B0895A29F76
S1131570B001B39FC001A39F700D811D1124911D63
S1131580B29F700D811D1124911D0895F894FFCF11
S113159001000000202020202020202020202020C6
S11315A02020202020202020202020202020202037
S11315B020202020546F74616C204B696C6C733A4A
S11315C0202020205072657373204320746F2042C2
S11315D06567696E02061F06061F06021F151F15A2
S11315E01F151F1F08080C1F1F0C0808FFFFFFFF13
S11315F0FFFFFFFF20010000000702FC01F101E6EC
S113160001DB01D001C501BA015072657373204139
S113161020746F2053746172745072657373204424
S113162020746F205265736574FF202020202020D1
S11316302020202020FF20202020FF2020202020E8
S10D164020FF20202020202020009D
S9030000FC
