:1000000045C0000060C000005EC000005CC0000091
:100010005AC0000058C0000056C0000054C0000084
:1000200052C0000050C000004EC000004CC0000094
:100030004AC00000CCC0000046C0000044C0000020
:1000400042C0000040C000003EC000003CC00000B4
:100050003AC0000038C0000036C0000034C00000C4
:1000600032C0000030C000002EC000002CC00000D4
:100070002AC0000028C0000026C0000024C00000E4
:1000800022C0000020C000001EC0000011241FBEBE
:10009000CFEFD0E4DEBFCDBF11E0A0E0B1E0E2EEF3
:1000A000F6E000E00BBF02C007900D92A437B10745
:1000B000D9F721E0A4E7B1E001C01D92A23BB2074D
:1000C000E1F756D20CC39CCFCF93DF93CDB7DEB709
:1000D000A0970FB6F894DEBF0FBECDBF009721F0FA
:1000E0008130910531F00AC080912501813461F49D
:1000F00022C0809125018434F1F406C0009721F0DC
:100100008130910531F517C01092AC0180E2EAE22E
:10011000F1E0DE01119601900D928A95E1F780E2FF
:10012000FE013196A0E0B1E001900D928A95E1F7D1
:1001300080E090E00EC081E08093AC0180E2E4E5D5
:10014000F1E0A0E0B1E001900D928A95E1F781E045
:1001500090E0A0960FB6F894DEBF0FBECDBFDF9142
:10016000CF91089560932601709327018093280111
:10017000909329016093AD017093AE018093AF011C
:100180009093B00108958BE0809381008DE790E01B
:10019000909389008093880082E080936F00109292
:1001A0008500109284008091260190912701A091F2
:1001B0002801B09129018093AD019093AE01A093E5
:1001C000AF01B093B0018FB780688FBF08951F92C1
:1001D0000F920FB60F9211248F939F93AF93BF93FB
:1001E0008091AD019091AE01A091AF01B091B001AD
:1001F0000197A109B1098093AD019093AE01A0933D
:10020000AF01B093B001892B8A2B8B2B99F481E03D
:100210008093B1018091260190912701A09128013E
:10022000B09129018093AD019093AE01A093AF01ED
:10023000B093B001BF91AF919F918F910F900FBE7E
:100240000F901F901895181619065CF0089500007D
:1002500021503109E1F74F5F5F4F8417950719F47B
:10026000089540E050E027E033E0F1CF10988BB9DB
:10027000119A0000119882E090E0E5CF089581E0A6
:10028000F5CF0895813118F48158F0CF0895815544
:10029000EDCF089584E690E0D6DF88E3E7DF86E0DF
:1002A000E5DF8FE0E3DF81E0E1DF8AE090E0CBCFC4
:1002B0000895109A8BB9119A0000119881E090E08E
:1002C000C2CF08950F931F93CF93DF93182FEB01A5
:1002D000D6DF8881882351F001E0010F812FD2DF22
:1002E0008991E7DF102F88818111F6CFDF91CF91BF
:1002F0001F910F910895CF93DF93EC0160E071E0BF
:1003000081E0E0DFCE01DF91CF9108958FEE88B9D3
:100310000000309B29C0319B29C0329B29C0339BF0
:1003200029C08FED88B90000309B26C0319B26C0C4
:10033000329B26C0339B26C08FEB88B90000309BD0
:1003400023C0319B23C0329B23C0339B23C08FE744
:1003500088B90000309B20C0319B20C0329B20C058
:10036000339B20C080E0089580E2089584E30895DF
:1003700087E308958AE2089582E3089585E3089566
:1003800088E3089580E3089583E3089586E308955C
:1003900089E3089583E2089581E4089582E408954D
:1003A00083E4089584E40895CF93DF93EC01AEDFF6
:1003B00080932501CE01DF91CF910895982F9F7EE4
:1003C00091509F3008F4815008958F3010F48F5F62
:1003D000089590EF980F9F3008F48F5F089500976D
:1003E00021F08130910531F00AC08091AC0181305B
:1003F00061F410C08091AC01882339F00BC00097E4
:1004000021F081309105B1F505C01092AB0180E07B
:1004100090E0089580912501823351F49091AB01D1
:1004200080EF890F803108F0892F8093AB0119C0CC
:10043000883341F48091AB01803108F4805F809370
:10044000AB010FC0843331F48091AB01B7DF8093EF
:10045000AB0107C0863329F48091AB01B6DF8093EE
:10046000AB01E091AB01F0E0E050FF4F8EE3808301
:1004700081E090E00895BF92CF92DF92EF92FF92D9
:100480000F931F93CF93DF93009721F08130910555
:1004900031F00AC08091AC01813069F417C08091BD
:1004A000AC01882341F012C0009729F081309105FA
:1004B00009F054C00BC0E0E2F1E08FEF808381834C
:1004C00082838383848380E090E048C0809125010B
:1004D0008533C1F5809120018F3F49F0E1E2F1E0E1
:1004E00081E090E0AC0121912F3F51F402C040E047
:1004F00050E0FA01E05EFE4F8091AB01808322C0A4
:1005000001968530910571F71DC088818F3F41F0BC
:10051000982F9F7E9F3011F4B88202C056DF8883E7
:100520002196CE15DF0589F78DE2D801ED918D0179
:10053000F0E0E050FF4F8083AE15BF05B1F781E0DA
:1005400090E00CC000E211E00F2EF5E2EF2EF1E09A
:10055000FF2EF02DE801BB24BA94D7CFDF91CF91C5
:100560001F910F91FF90EF90DF90CF90BF90089573
:10057000CF93DF93CDB7DEB72A970FB6F894DEBFDF
:100580000FBECDBF8FEF81B912B884B915B890EF07
:1005900097B99FE098B98AB91BB87CDE8AE0EAE493
:1005A000F1E0DE01119601900D928A95E1F7E0EA03
:1005B000F1E0108281E090E0A0E0B0E081839283DE
:1005C000A383B483158216821782108624ED31E04E
:1005D00032872187E5E9F1E0108281839283A3834A
:1005E000B48315821682178210862BE731E032879A
:1005F0002187EAE8F1E0108281839283A383B483A8
:10060000158216821782108624E630E03287218711
:10061000EFE7F1E0108281839283A383B483158294
:100620001682178210862FEE31E032872187E4E7A9
:10063000F1E0108281839283A383B48315821682B2
:10064000178210868BE392E09287818768EC70E0D6
:1006500080E090E087DD97DD7E018BE0E80EF11C05
:10066000DE0111966D01F601019111916F01D80122
:1006700015964D915D916D917C91189711968D9184
:100680009D910D90BC91A02D481759076A077B07D3
:1006900081F4F80180810184F285E02D082E000CA0
:1006A000990B0995D8018C93F8011582168217824F
:1006B0001086F80185819681A781B0850196A11DDC
:1006C000B11D85839683A783B087EC14FD0459F68A
:1006D0008091B1018823E1F31092B101C1CFF89468
:0206E000FFCF4A
:1006E2002020202020202020202020202020202008
:1006F20020202020202020202020202020202020F8
:10070200FFFFFFFFFF20010000005072657373209E
:100712004120746F20537461727450726573732038
:100722004420746F205265736574A00195018A019B
:100732007F01740120202020202020202020202042
:1007420020202020202020202020202020202020A7
:040752002020202023
:00000001FF
