:1000000045C0000060C000005EC000005CC0000091
:100010005AC0000058C0000056C0000054C0000084
:1000200052C0000050C000004EC000004CC0000094
:100030004AC0000064C1000046C0000044C0000087
:1000400042C0000040C000003EC000003CC00000B4
:100050003AC0000038C0000036C0000034C00000C4
:1000600032C0000030C000002EC000002CC00000D4
:100070002AC0000028C0000026C0000024C00000E4
:1000800022C0000020C000001EC0000011241FBEBE
:10009000CFEFD0E4DEBFCDBF11E0A0E0B1E0E4E5FA
:1000A000FFE000E00BBF02C007900D92A23DB10738
:1000B000D9F722E0A2EDB1E001C01D92AB33B20747
:1000C000E1F7D1D445C79CCFFC010FB6F8946091FD
:1000D0003702709138028091390290913A020FBE36
:1000E000309721F0608371838283938308952091F8
:1000F0003002213091F08130910551F0823091052C
:1001000061F0009789F4809144018134A9F419C009
:10011000809144018434A9F40FC080914401833458
:10012000B1F41092300208C08130910551F0823054
:10013000910569F0009779F41092310280E090E027
:10014000089581E08093310281E090E0089510925B
:10015000310282E090E00895009721F0813091050E
:1001600031F00AC080913102813061F410C0809179
:100170003102882339F00BC0009721F081309105BE
:1001800069F405C010922E0280E090E008958091FD
:100190002E028F5F80932E0281E090E00895EF920F
:1001A000FF920F931F93CF93DF93009721F081303D
:1001B000910549F00EC020913102213009F063C051
:1001C00010922F020AC080913102882309F459C08D
:1001D00004C08130910509F056C060912F02AFE351
:1001E000B1E004E411E04FE351E07FEF7D018C9139
:1001F0008F3F81F0ECE3F1E080818F3F39F0E70140
:100200009881891303C06F5F7883708331964E178E
:100210005F0791F711960A171B0741F760932F02AA
:1002200040912E0260912D027091300280E120E019
:1002300030E050E0A1E0FA01E20FF31FEF71FF2779
:10024000EF54FE4F9081903219F0681301C07A2F5D
:100250002F5F3F4F8F5F803271F780913C016813B1
:1002600001C071E080913D01681301C071E080918F
:100270003E01681301C071E07093300281E090E0AC
:1002800002C080E090E0DF91CF911F910F91FF902D
:10029000EF90089560934501709346018093470164
:1002A000909348016093320270933302809334023A
:1002B0009093350208958BE0809381008DE790E064
:1002C000909389008093880082E080936F00109261
:1002D0008500109284008091450190914601A09183
:1002E0004701B09148018093320290933302A0936A
:1002F0003402B09335028FB780688FBF08951F9284
:100300000F920FB60F9211248F939F93AF93BF93C9
:100310008091320290913302A0913402B091350263
:100320000197A109B1098093320290933302A093FF
:100330003402B0933502892B8A2B8B2B99F481E000
:10034000809336028091450190914601A09147012A
:10035000B09148018093320290933302A09334020B
:10036000B0933502BF91AF919F918F910F900FBEC7
:100370000F901F901895181619065CF0089500004C
:1003800021503109E1F74F5F5F4F8417950719F44A
:10039000089540E050E027E033E0F1CF10988BB9AA
:1003A000119A0000119882E090E0E5CF089581E075
:1003B000F5CF0895813118F48158F0CF0895815513
:1003C000EDCF089584E690E0D6DF88E3E7DF86E0AE
:1003D000E5DF8FE0E3DF81E0E1DF8AE090E0CBCF93
:1003E0000895109A8BB9119A0000119881E090E05D
:1003F000C2CF08950F931F93CF93DF93182FEB0174
:10040000D6DF8881882351F001E0010F812FD2DFF0
:100410008991E7DF102F88818111F6CFDF91CF918D
:100420001F910F9108958FEE88B90000309B29C06D
:10043000319B29C0329B29C0339B29C08FED88B9DD
:100440000000309B26C0319B26C0329B26C0339BC8
:1004500026C08FEB88B90000309B23C0319B23C09E
:10046000329B23C0339B23C08FE788B90000309BA9
:1004700020C0319B20C0329B20C0339B20C080E035
:10048000089580E2089584E3089587E308958AE259
:10049000089582E3089585E3089588E3089580E34D
:1004A000089583E3089586E3089589E3089583E238
:1004B000089581E4089582E4089583E4089584E42E
:1004C0000895CF93DF93EC01AEDF80934401CE011A
:1004D000DF91CF910895982F9F7E91509F3008F41F
:1004E000815008958F3010F48F5F089590EF980F2A
:1004F0009F3008F48F5F0895009721F081309105B7
:1005000031F00AC080913102813061F410C08091D5
:100510003102882339F00BC0009721F0813091051A
:10052000C1F505C010922D0280E090E00895809101
:100530004401823361F490912D0280EF890F803164
:1005400008F0892F80932D0281E090E00895883390
:1005500051F480912D02803108F4805F80932D0248
:1005600081E090E00895843341F480912D02B3DF5F
:1005700080932D0281E090E00895863341F48091CC
:100580002D02B0DF80932D0281E090E0089581E09C
:1005900090E00895BF92CF92DF92EF92FF920F9377
:1005A0001F93CF93DF93009721F08130910531F0B5
:1005B0000AC080913102813069F418C08091310203
:1005C000882341F013C0009729F08130910509F08C
:1005D00056C00CC0EFE3F1E08FEF8083818382830C
:1005E0008383848315B880E090E049C08091440102
:1005F0008533C9F580913F018F3F49F0E0E4F1E098
:1006000081E090E0AC0121912F3F51F402C040E025
:1006100050E0FA01E15CFE4F80912D02808323C0FF
:1006200001968530910571F71EC088818F3F41F09A
:10063000982F9F7E9F3011F4B88202C053DF8883C9
:100640002196CE15DF0589F790E0F80181918F01A1
:100650008F3F11F4990F9F5F0E151F05B1F795B9E4
:1006600081E090E00CC00FE311E00F2EF4E4EF2ED8
:10067000F1E0FF2EF02DE801BB24BA94D6CFDF9134
:10068000CF911F910F91FF90EF90DF90CF90BF908F
:100690000895982F9F7E29F091509F3018F4815033
:1006A00008958FEF0895CF92DF92EF92FF920F930C
:1006B0001F93CF93DF93EC0102D4209721F0C13038
:1006C000D10531F00AC020913102213069F415C002
:1006D00020913102222341F010C0209729F0C1302F
:1006E000D10509F077C009C0ECE3F1E08FEF80831A
:1006F00081838283C0E0D0E06DC0817090789923BF
:1007000024F401978E6F9F6F0196813009F054C0D9
:10071000CCE3D1E00FE311E00F2EFFE0CF2EF02D60
:100720000F2EFFE1DF2EF02D7E0188818F3FA9F48F
:10073000C6D381709078992324F401978E6F9F6FB0
:10074000019699278130910519F0029721F005C093
:10075000F701C08202C0F701D0822196C017D107ED
:1007600019F72AC08E0188818F3FF9F0A8D3B6010E
:1007700016D399278130910571F08230910591F05F
:10078000892B99F4988180EF890F803108F0892FA7
:10079000F80180830AC08881803108F4805FF80105
:1007A000808303C0888175DF88832196EC16FD065F
:1007B000C9F6C1E0D0E00EC0CCE3D1E00F2EFFE3DC
:1007C000EF2EF1E0FF2EF02D0F2EF3E0CF2ED12CE7
:1007D000F02DC8CFCE01DF91CF911F910F91FF90E7
:1007E000EF90DF90CF9008950F931F93CF93DF93F7
:1007F000883070F48B01880F880F880F805CCEDD05
:10080000E801085F1F4F8991ECDDC017D107D9F7C8
:10081000DF91CF911F910F91089564E171E080E025
:10082000E3CF08956CE071E081E0DECF089564E0ED
:1008300071E082E0D9CF089580E0D3CD089581E0C2
:10084000D0CD089582E0CDCD0895EF92FF920F9321
:100850001F93CF93DF938130910551F08230910542
:10086000A9F00097E1F480913102813011F590C038
:1008700080913002811104C0809131028823C9F037
:1008800080913102813009F483C024C0809130020C
:10089000813001F180913102882359F079C0813093
:1008A0009105C1F08230910509F472C0009709F0FA
:1008B000D3C001E911E0C0E0CF5F8C2F7BDDF801F0
:1008C00081918F018EDD80E075DDC032A9F780E077
:1008D00090E0C2C06CDD69E571E081E08BDD809164
:1008E0002F02DDEC8D9FC12D1124C695C695C695AE
:1008F000CC0F9C2F990F990FC90FF82FFC1BCF2FEE
:10090000F0932C028F1B99E2899F912D11249295CF
:100910009F70382F24E6929F301911243D9FD12DCE
:100920001124D695D695D695D0932B028D1B90E0A9
:1009300068EE73E034D264E670E031D2162F609333
:100940002A0288E037DD80E3810F4BDD89E032DD6C
:1009500080E38D0F46DD8AE02DDD80E38C0F41DDE5
:1009600001E811E00F2EF1E9EF2EF1E0FF2EF02D5E
:10097000C1E18C2F1FDDF80181918F0132DD80E014
:1009800019DDCF5F0E151F05A1F781E090E064C06F
:1009900080E2E1E6F1E0ACE1B1E001900D928A95F0
:1009A000E1F720912E02ACE2B1E04CE351E030E0FF
:1009B0002C523140CCE1D1E0F901EA0FFB1FEF717D
:1009C000FF27EF54FE4F80818D93A417B50791F751
:1009D000ACE3B1E0EC91F0E0E45EFE4F80E48083B4
:1009E0001196EC911197F0E0E45EFE4F8083129631
:1009F000EC91F0E0E45EFE4F8083AFE3B1E024E4ED
:100A000031E08DE2ED91F0E0E45EFE4F8083A217CD
:100A1000B307C1F7E0912D02F0E0E45EFE4F8EE3F4
:100A2000808310E01F5F812FC5DC7E0188818E33BB
:100A300011F402DF07C08F3F11F401DF03C08034DF
:100A400009F400DF2196F7018081CBDC80E0B2DC85
:100A5000103241F782E090E0DF91CF911F910F912A
:100A6000FF90EF900895CF93DF93CDB7DEB76097F7
:100A70000FB6F894DEBF0FBECDBF8FEF81B912B8AD
:100A800084B915B890EF97B99FE098B98AB91BB8A7
:100A900018EC00E0F12CE12C54E640E030E020E0DE
:100AA00004C0162F072FF82EE92E652F742F832FE1
:100AB000922F212F302F4F2D5E2D84D1512F402F7B
:100AC0003F2D2E2D611571058105910551F70F2ED2
:100AD000F8ECBF2EF02DA12C912C812C04C0B62E49
:100AE000A72E982E892E612F702F8F2D9E2D2B2DA6
:100AF0003A2D492D582D66D11B2D0A2DF92CE82CA5
:100B0000611571058105910551F710E901E0F12C9E
:100B1000E12C04C0162F072FF82EE92E6B2D7A2D0D
:100B2000892D982D212F302F4F2D5E2D4BD1B12E99
:100B3000A02E9F2C8E2C611571058105910551F712
:100B40000F2EF0E9BF2EF02DAA24A394912C812C16
:100B500004C0B62EA72E982E892E612F702F8F2DB0
:100B60009E2D2B2D3A2D492D582D2CD11B2D0A2D84
:100B7000F92CE82C611571058105910551F70F2EAF
:100B8000F8ECEF2EF02DF12C00E010E004C0E62E82
:100B9000F72E082F192F6B2D7A2D892D982D2E2D9C
:100BA0003F2D402F512F0ED1BE2CAF2C902E812ED9
:100BB000611571058105910551F768EC70E080E0E1
:100BC00090E02E2D3F2D402F512FFCD049015A018E
:100BD00064E670E080E090E02E2D3F2D402F512FF5
:100BE000F1D029013A0160E971E080E090E02E2D1A
:100BF0003F2D402F512FE6D080E1E9E4F1E0DE0106
:100C0000119601900D928A95E1F7EFE1F2E01082E2
:100C100081829282A382B482158216821782108604
:100C200081E692E092878187E4E1F2E010824182DE
:100C3000528263827482158216821782108685E240
:100C400094E092878187E9E0F2E01082418252824B
:100C500063827482158216821782108687E790E07D
:100C600092878187EEEFF1E0108221833283438304
:100C7000548315821682178210868CEA90E0928740
:100C80008187E3EFF1E0108281829282A382B482B5
:100C900015821682178210868CE792E092878187F0
:100CA000E8EEF1E0108281829282A382B482158202
:100CB0001682178210868AEC92E092878187EDED8A
:100CC000F1E010822183328343835483158216829C
:100CD0001782108683E593E092878187E2EDF1E049
:100CE000108281829282A382B48215821682178238
:100CF00010868FEC90E0928781876E2D7F2D802F5C
:100D0000912FC8DAD8DA5EDB88DD8CDD90DD80E0FB
:100D100090E0DAD9CB01D6D05E0181E1A80EB11CFA
:100D2000DE0111967D01F701019111917F01D8013A
:100D300015964D915D916D917C91189711968D91BD
:100D40009D910D90BC91A02D481759076A077B070C
:100D500081F4F80180810184F285E02D082E000CD9
:100D6000990B0995D8018C93F80115821682178288
:100D70001086F80185819681A781B0850196A11D15
:100D8000B11D85839683A783B087AE14BF0459F63F
:100D9000809136028823E1F310923602C1CF97FB8F
:100DA000072E16F4009406D077FD08D02DD007FC4E
:100DB00005D03EF4909581959F4F0895709561956B
:100DC0007F4F0895A1E21A2EAA1BBB1BFD010DC087
:100DD000AA1FBB1FEE1FFF1FA217B307E407F507EB
:100DE00020F0A21BB30BE40BF50B661F771F881FC7
:100DF000991F1A9469F760957095809590959B015D
:100E0000AC01BD01CF010895AA1BBB1B51E107C076
:100E1000AA1FBB1FA617B70710F0A61BB70B881F8A
:100E2000991F5A95A9F780959095BC01CD01089519
:100E30008F929F92AF92BF92CF92DF92EF92FF92EA
:100E4000CF93DF93EC01688179818A819B81611561
:100E500071058105910521F464E279ED8BE597E058
:100E60002DE133EF41E050E038D049015A019B01B8
:100E7000AC01A7EAB1E44DD06B017C01ACEEB4EF5C
:100E8000A501940152D0DC01CB018C0D9D1DAE1D3E
:100E9000BF1DB7FF03C00197A109B048888399839C
:100EA000AA83BB839F77DF91CF91FF90EF90DF9074
:100EB000CF90BF90AF909F908F900895B9CF80E072
:100EC00091E0B6CFA0E0B0E08093000190930101E3
:100ED000A0930201B09303010895052E97FB16F429
:100EE00000940FD057FD05D06DDF07FC02D046F40B
:100EF00008C050954095309521953F4F4F4F5F4F1B
:100F0000089590958095709561957F4F8F4F9F4F75
:100F100008950FD0A59F900DB49F900DA49F800DB4
:100F2000911D11240895B7FFF4CFF3DF821B930BBB
:100F30000895A29FB001B39FC001A39F700D811DB2
:100F40001124911DB29F700D811D1124911D0895D2
:040F5000F894FFCF43
:100F54000100000002061F06061F06021F151F15CA
:100F64001F151F1F08080C1F1F0C08082020202015
:100F7400202020202020202020202020202020206D
:100F8400202020202020202020202020FFFFFFFFE1
:100F9400FFFFFFFF20010000001F0214020902FEF0
:100FA40001F301E801DD01D20153434F52453A20D8
:100FB400002020202020202020202020202020204D
:100FC400202020202020202020202020202020201D
:100FD400205072657373204320746F2042656769E3
:100FE4006E5072657373204120746F205374617264
:100FF400745072657373204420746F205265736556
:1010040074FF2020202020202020202020FF2020CA
:101014002020FF202020202020FF2020202020200E
:021024002000AA
:00000001FF
